:10000000002000202D2C00007D2C00007D2C000005
:1000100000000000000000000000000000000000E0
:100020000000000000000000000000007D2C000027
:1000300000000000000000007D2C00007D2C00006E
:100040007D2C00007D2C00007D2C00007D2C00000C
:100050007D2C00007D2C00007D2C00007D2C0000FC
:10006000000000007D2C00007D2C00007D2C000095
:100070007D2C00007D2C00007D2C00007D2C0000DC
:100080007D2C000000000000000000007D2C00001E
:10009000000000007D2C00007D2C00007D2C000065
:1000A000000000007D2C0000000000007D2C0000FE
:0C00B0007D2C000000000000000000009B
:1000BC00002243088B4274D303098B425FD3030A9B
:1000CC008B4244D3030B8B4228D3030C8B420DD3AE
:1000DC00FF22090212BA030C8B4202D3121209023C
:1000EC0065D0030B8B4219D300E0090AC30B8B427A
:1000FC0001D3CB03C01A5241830B8B4201D38B0328
:10010C00C01A5241430B8B4201D34B03C01A5241CC
:10011C00030B8B4201D30B03C01A5241C30A8B420F
:10012C0001D3CB02C01A5241830A8B4201D38B02FA
:10013C00C01A5241430A8B4201D34B02C01A52419E
:10014C00030A8B4201D30B02C01A5241CDD2C30910
:10015C008B4201D3CB01C01A524183098B4201D38C
:10016C008B01C01A524143098B4201D34B01C01A77
:10017C00524103098B4201D30B01C01A5241C308EF
:10018C008B4201D3CB00C01A524183088B4201D35E
:10019C008B00C01A524143088B4201D34B00C01A4A
:1001AC005241411A00D20146524110467047FFE7B6
:1001BC0001B5002000F0F0F802BDC0460029F7D0D0
:1001CC0076E7704703460B437FD4002243088B42EB
:1001DC0074D303098B425FD3030A8B4244D3030BC2
:1001EC008B4228D3030C8B420DD3FF22090212BA87
:1001FC00030C8B4202D31212090265D0030B8B4203
:10020C0019D300E0090AC30B8B4201D3CB03C01AEC
:10021C005241830B8B4201D38B03C01A5241430BC7
:10022C008B4201D34B03C01A5241030B8B4201D3B7
:10023C000B03C01A5241C30A8B4201D3CB02C01A22
:10024C005241830A8B4201D38B02C01A5241430A9A
:10025C008B4201D34B02C01A5241030A8B4201D389
:10026C000B02C01A5241CDD2C3098B4201D3CB0130
:10027C00C01A524183098B4201D38B01C01A5241DF
:10028C0043098B4201D34B01C01A524103098B42E3
:10029C0001D30B01C01A5241C3088B4201D3CB00CE
:1002AC00C01A524183088B4201D38B00C01A5241B1
:1002BC0043088B4201D34B00C01A5241411A00D261
:1002CC0001465241104670475DE0CA0F00D04942CA
:1002DC00031000D34042534000229C4603098B423A
:1002EC002DD3030A8B4212D3FC22890112BA030AC2
:1002FC008B420CD3890192118B4208D38901921144
:10030C008B4204D389013AD0921100E08909C309C8
:10031C008B4201D3CB01C01A524183098B4201D3CA
:10032C008B01C01A524143098B4201D34B01C01AB5
:10033C00524103098B4201D30B01C01A5241C3082D
:10034C008B4201D3CB00C01A524183088B4201D39C
:10035C008B00C01A5241D9D243088B4201D34B00B7
:10036C00C01A5241411A00D20146634652415B10F9
:10037C00104601D34042002B00D5494270476346DA
:10038C005B1000D3404201B5002000F005F802BD1F
:10039C000029F8D016E770477047C046844608001D
:1003AC006146FFE71FB500F0DBFA002801D40021FD
:1003BC00C8421FBD10B500F057FA4042013010BDC5
:1003CC0010B500F0CDFA002801DB002010BD012093
:1003DC0010BDC04610B500F0C3FA002801DD0020A6
:1003EC0010BD012010BDC04610B500F069FA002800
:1003FC0001DC002010BD012010BDC04610B500F07E
:10040C005FFA002801DA002010BD012010BDC046A3
:10041C00F0B5C64647027B0A9C464B025A0A9046E8
:10042C0045004A002D0E120ECE0F00B59909C40FCF
:10043C00BF09AB1AB4424BD0002B39DD002A00D1D6
:10044C0077E0FF2D00D1C1E08022D20411431B2B99
:10045C0000DCFFE0013F7A0100D4B1E001277F42CC
:10046C00BF01BA091600100000F056FC3300053825
:10047C008340854200DCD5E0B94F2D1A1F405A0746
:10048C0000D178E10F221340042B00D173E1043723
:10049C007B0100D46FE1681CFE2D00D07DE0FF20B5
:1004AC000022C0051043E407204380BCB846F0BDD1
:1004BC00002B46D0531B002D73D1002F00D139E1F6
:1004CC00012B00D17EE1FF2B00D156E1013B6EE008
:1004DC00002B00DC85E0002A51D1002972D05A1E75
:1004EC00012B00D12CE1FF2B70D01B2A4CDC13000C
:1004FC0008002022D840D31A99400B005A1E934171
:10050C000343FF188023DB041F4200D12CE101358B
:10051C00FF2DC4D0934A79081140012217400F4394
:10052C007A0700D08DE01F42B5D1FB089C462B000A
:10053C002EE0002946D0012B67D0FF2B46D0013B83
:10054C0085E7FE206A1C104200D099E0002D00D0F7
:10055C00E6E0002F00D12FE1002919D080257A1A6E
:10056C00ED042A4200D15AE13400CF1B00D18FE0B8
:10057C0001202F4212D1FB089C46002308E0FF2DDE
:10058C0024D01B2B00DC9AE00537FB089C462B0083
:10059C0062465202520AD8B283E7C0B2BA01520A7A
:1005AC007FE7FF2A00D1E8E08020C00407431B2B23
:1005BC0000DC88E04F1E34001500790100D54DE7B2
:1005CC002B000437FA089446FF2BE1D16346002B2D
:1005DC0000D145E18022D2031A435202FF20520A75
:1005EC005FE7002B57D0531B002D78D1002F00D183
:1005FC00A1E05D1E012B00D1A2E0FF2B00D1BDE0DC
:10060C001B2D00DDC0E02B0070E0791A4A0100D4EC
:10061C00B6E089018D09280000F07EFB2B0005381F
:10062C00834001252022401B0130121A1F009340E9
:10063C00C7405A1E93411F432AD000257B0700D187
:10064C0008E10F233B40042B00D020E77B0100D5B1
:10065C0021E76AE708002022D840D31A99400B0002
:10066C005A1E93410343FF1A7B0100D5F8E67B0722
:10067C0000D15AE70F233B40042B00D007E754E787
:10068C007B1A1A005B0158D4002A00D0EAE6002439
:10069C000020002205E7FE226B1C1A4231D1002DEE
:1006AC0077D1002F00D1A6E0002900D1BCE07A1848
:1006BC00530100D4BAE092010120520AF1E68022E3
:1006CC00D204114314E738002024D840E31A9F4089
:1006DC007B1E9F41074334001500CF1BC4E7FF2A44
:1006EC004CD01B2B50DC8020C00407433800202545
:1006FC00D840EB1A9F407B1E9F41074315007F1883
:10070C0000E7FF2B00D1CAE67F187F087A0700D1DB
:10071C0090E00F223A40042A00D18BE0043751E7D5
:10072C00002F5DD1002900D086E080220024FF201C
:10073C00D203B6E634000F0044E73400CA1B91E63E
:10074C007B185A0100D47EE0064F5B081F405A0705
:10075C0058D00F221340042B54D00223043731E716
:10076C00FFFFFFFBFFFFFF7D7B0704D00F233B4008
:10077C00042B00D08BE62B0024E73400C44625E77D
:10078C00CB089C46012303E70531CB089C4613009C
:10079C00FEE6002FF2D0002936D08023DB039C45E7
:1007AC0002D3984500D2C44680226346D2031A4332
:1007BC005202FF20520A74E6002900D167E7340088
:1007CC00C446E5E6CB1B5A0124D59B019C092000AD
:1007DC0000F0A2FA2300053883403400013521E7EC
:1007EC00002911D08023DB039C45DDD39845DBD257
:1007FC003400C446D8E7002900D149E7CB089C4611
:10080C000023C5E6022590E680226346D203FF2032
:10081C001A4346E6DB089C4634000123B8E6002A5E
:10082C0015D1002400203CE60023B1E6D3089C46F9
:10083C000023ADE61D0078E680224346D203340047
:10084C00FF201A432DE6DB089C460123A0E6D208C4
:10085C0094469DE601207B0100D59EE63900CDE74C
:10086C00FF201A001DE6C04630B543024200C50FFA
:10087C0048025B0A440A48009C46120E000EC90F3F
:10088C00FF2A11D0FF280CD0012382420AD1A445A3
:10089C0008D18D4211D0002A04D163465A1E9341CF
:1008AC0000E00123180030BD0123FF28FAD1624675
:1008BC002243F7D12B004B40F4E70023F2E7C0466C
:1008CC0043025B0A42009C46C30F480210B5440A1F
:1008DC004800120E000EC90FFF2A1AD0FF280BD0A9
:1008EC00002A24D1624600281ED1002C2ED0002ACA
:1008FC0032D1480001380BE0002C2AD1002A02D159
:10090C006246002AF5D08B421DD001205B42184371
:10091C0010BD6246002A1CD1FF28F6D1002C18D13C
:10092C0020008B42F1D1F3E7002AE2D0EBE700285C
:10093C00EBD08B42E9D18242E7DC04DBA445E4D85E
:10094C000020A445E4D258000138E1E7002ADFD0AA
:10095C00DBE702204042DBE78B42D6D1EEE7C04614
:10096C0043025B0A42009C46C30F480210B5440A7E
:10097C004800120E000EC90FFF2A15D0FF280BD00D
:10098C00002A1AD1624600281DD1002C22D0002A40
:10099C0032D1480001380FE0002C0CD1002A14D1C0
:1009AC006246002AF5D010E06246002A03D1FF28E7
:1009BC0005D1002C1CD0022010BD00280DD1012027
:1009CC005B421843F8E7002AE3D08B42F7D158007A
:1009DC000138F1E7002AEFD0F1E78B42EFD18242E8
:1009EC00EDDCF4DBA445EAD80020A445E4D2EEE724
:1009FC0020008B42E3D1DFE78B42E0D1F2E7C04627
:100A0C00F0B54646D6464F464402C0B5C30F460025
:100A1C0098460D1C640A360E00D1CBE0FF2E6ED02A
:100A2C008023E400DB041C43002399469A467F3E56
:100A3C006F026B007F0A1B0EED0F002B6DD0FF2B8E
:100A4C0000D1A6E07F3BF6184B460A2B00DD82E076
:100A5C008023FF00DB041F4343466B4098464B4604
:100A6C000022022B0FDD494601238B40A621C90031
:100A7C000B4200D06FE0902189000B4200D0D3E0F4
:100A8C008821194264D1200C2404240C21003B0C35
:100A9C003F043F0C79435C4347435843E4190B0C28
:100AAC001B199F4202D980225202801809041A0491
:100ABC00090C52189401611E8C411B0C920E1B18D0
:100ACC0014439B011C431B0100D5CDE030007F304B
:100ADC00002800DCAEE063070BD00F23320023406C
:100AEC00042B06D00434230103D580321000684B4C
:100AFC001C40FE2866DCA3015B0AC0B21EE0002C81
:100B0C0000D08BE008239946063B6F029A466B0097
:100B1C007F0A1B0EED0F002B91D1002F61D14A469D
:100B2C0001231A4391460A2A15DC43466B4098462A
:100B3C004B460122022B96DC00200023C0051843F3
:100B4C004346DD072843E0BCBA46B146A846F0BD93
:100B5C00A8463C0092465346022B33D0032B11D0AF
:100B6C00012BE9D030008030721C002863DD630754
:100B7C00B9D00F232340042BB4D1B4E70F2A78D07B
:100B8C00A8463C008023DB0323435B02FF205B0A67
:100B9C00D4E7FF36002F2FD102234A4613430A2BEA
:100BAC00D9DC42466A4090464A46002A0AD0994609
:100BBC00022258E7002C08D104239946033B002657
:100BCC009A4635E7FF200023B8E7200000F0A4F890
:100BDC007626431F9C400023764299469A46361A45
:100BEC0026E7380000F098F84B46361A763E0A2B6A
:100BFC00B1DC053887402FE703234A461A4313001C
:100C0C000A2ABBDC42466A40904601229A4088215F
:100C1C0013000322194200D135E799E70C239946BA
:100C2C00093BFF269A4603E7002398468023FF20C2
:100C3C00DB0383E7320003001A3300DA7CE79E32D1
:100C4C000123210094401B1AD940621E94410C438D
:100C5C00630704D00F232340042B00D0043463011A
:100C6C0011D50120002369E7012362081C401443BD
:100C7C0078E78023DB031C4284D01F4282D1A84634
:100C8C00FF203B435AE7A30100205B0A56E7C0460E
:100C9C00FFFFFFF710B504000020002C0ED0200041
:100CAC0000F03AF803009E20C01A072B09DD082B30
:100CBC002CD0083B9C406402640AC0B2C00520439F
:100CCC0010BD042B16DD052B01D05A1F9440114A80
:100CDC00224061070AD00F212140042906D004329A
:100CEC00510103D59F200B49C01A0A409201540AA6
:100CFC00C0B2E3E71A0021001B3291400A00511EDA
:100D0C008A410521C91ACC401443E0E764029620BD
:100D1C00640AD3E7FFFFFFFB1C2101231B0498424D
:100D2C0001D3000C10391B0A984201D3000A083970
:100D3C001B09984201D30009043902A2105C401827
:100D4C007047C046040302020101010100000000CB
:100D5C0000000000F0B59FB001F0B0F91C2200219A
:100D6C000EA801F07BF91422002108A8012601F03D
:100D7C0075F9022710230DA80024119310960D97D6
:100D8C001397159701F03CFA0722310008A8089236
:100D9C0009970A940B9401F023FC0C2221000FA854
:100DAC0001F05CF980228C4D92026B698B481343E5
:100DBC006B616B690DA9134080220293029B6B69D6
:100DCC00D20213436B616B69134080220393039B24
:100DDC006B69120313436B616B691340802204939C
:100DEC00049B6B69520313436B616B690E96134042
:100DFC000193019B03231093F5330D9301F0C6FC73
:100E0C00062276480DA90D92109401F0BFFC320019
:100E1C001021724801F048FD320040216F4801F06A
:100E2C0043FD320080216D4801F03EFD320020214F
:100E3C006A4801F039FD32003900684801F034FD90
:100E4C0032000421654801F02FFD64480DA90F966E
:100E5C000D960E9401F09AFC0C22210005A801F0CD
:100E6C00FDF80C2221000AA801F0F8F88022AB69E9
:100E7C0092001343AB61AB69032513400093009BB5
:100E8C000423574808A90893099501F07FFC102307
:100E9C00534808A9089301F079FC082308A9504885
:100EAC00089301F073FC4F4B0DA80D9380235B004E
:100EBC00119380235B0119961A930E970F9410943B
:100ECC00129713941494159416941794189401F083
:100EDC00DFFD0D2305A905930DA8063B0696079388
:100EEC0001F074FD0B23053605A90DA80593069793
:100EFC00079601F06BFD0C2305A90DA8059306952B
:100F0C00079601F063FD0DA801F090FD00F0BCFE0A
:100F1C0000F036FC00F0FEFA00F068FF01F022F859
:100F2C0000F05EFC200000F083FC00F075FB01F08B
:100F3C0023F82D4B1A78002A15D000221A7001F0D4
:100F4C007BF8040001F07EF8050000F083FE012818
:100F5C0003D101F07DF8040005002900200000F009
:100F6C00DFFC00F0C9FD01211C4801F08DFC0028BC
:100F7C002BD1323001F0AEF80121184801F084FC7D
:100F8C00002822D104000121144801F07DFC002826
:100F9C0012D0164B9C4218D0154C20784342584125
:100FAC00C0B2207000F044FC207801384342584114
:100FBC00C0B200F041FE08E00A2001F08BF80D4BA6
:100FCC000A349C42DFD100F075FB00F06DFB012868
:100FDC00ABD100F0ABFBA8E70010024000040048C6
:100FEC00000800480024014015000020B80B000048
:100FFC0014000020C20B000072B6FEE770B50600AC
:10100C000825802422003240344200D001220821DD
:10101C00094801F049FC00222021074801F044FC5A
:10102C00C04601222021044801F03EFCC046013D8F
:10103C006408002DE6D170BD0004004810B50022F4
:10104C000221044801F030FC01220421014801F086
:10105C002BFC10BD0004004810B504000022022136
:10106C00084801F021FC00220121064801F01CFC7B
:10107C002000FFF7C3FF01220248110001F014FC0D
:10108C0010BDC0460004004810B504000122022126
:10109C00084801F009FC00220121064801F004FC7B
:1010AC002000FFF7ABFF01220248110001F0FCFB0E
:1010BC0010BDC0460004004810B5040001220221F6
:1010CC00094801F0F1FB00220121074801F0ECFB7B
:1010DC00200AFFF793FFE0B2FFF790FF01220248CE
:1010EC00110001F0E1FB10BD0004004810B5012215
:1010FC0004210B4801F0D8FB0A2000F0EBFF002282
:10110C000421074801F0D0FB0F2000F0E3FF01227F
:10111C000421034801F0C8FB782000F0DBFF10BD70
:10112C0000040048F8B5070016000D001C002A202A
:10113C00FFF792FF0020FFF7A7FF3800FFF7A4FF8F
:10114C000020FFF7A1FF3000FFF79EFF2B20FFF7D9
:10115C0083FF0020FFF798FF2800FFF795FF002082
:10116C00FFF792FF2000FFF78FFF2C20FFF774FF93
:10117C00F8BD000070B51C0004AB1E888318150068
:10118C00502B02DD50252D1AEDB20B19A02B03DDCF
:10119C0060246442641AE4B24B1E421EE318AA187F
:1011AC00DBB2D2B2FFF7BEFF012202210C4801F0E4
:1011BC007BFB002201210A486C4301F075FB0025E2
:1011CC00A54205D101220648110001F06DFB70BD4E
:1011DC00300AFFF713FFF0B2FFF710FF0135EFE70E
:1011EC000004004813B504AC24884F2804D89F2968
:1011FC0002D80094FFF7BEFF13BD07B50021009085
:10120C00A02350220800FFF7B5FF07BD10B5FFF76C
:10121C006DFF0120FFF720FF962000F05BFF1120EF
:10122C00FFF71AFFFA20400000F054FFB120FFF73F
:10123C0013FF0120FFF728FF2C20FFF725FF2D209F
:10124C00FFF722FFB220FFF707FF0120FFF71CFF7B
:10125C002C20FFF719FF2D20FFF716FFB320FFF707
:10126C00FBFE0120FFF710FF2C20FFF70DFF2D20B8
:10127C00FFF70AFF0120FFF707FF2C20FFF704FF01
:10128C002D20FFF701FFB420FFF7E6FE0720FFF744
:10129C00FBFEC020FFF7E0FEA220FFF7F5FE0220C8
:1012AC00FFF7F2FE8420FFF7EFFEC120FFF7D4FE1C
:1012BC00C520FFF7E9FEC220FFF7CEFE0A20FFF79C
:1012CC00E3FE0020FFF7E0FEC320FFF7C5FE8A20F7
:1012DC00FFF7DAFE2A20FFF7D7FEC420FFF7BCFE8B
:1012EC008A20FFF7D1FEEE20FFF7CEFEC520FFF7D8
:1012FC00B3FE0E20FFF7C8FE2020FFF7ADFE362010
:10130C00FFF7AAFEC020FFF7BFFE3A20FFF7A4FEAE
:10131C000520FFF7B9FE2A20FFF79EFE0020FFF7FD
:10132C00B3FE0020FFF7B0FE0020FFF7ADFE9F20BC
:10133C00FFF7AAFE2B20FFF78FFE0020FFF7A4FE7D
:10134C000020FFF7A1FE0020FFF79EFE4F20FFF7C5
:10135C009BFEE020FFF780FE0220FFF795FE1C208D
:10136C00FFF792FE0720FFF78FFE1220FFF78CFE8F
:10137C003720FFF789FE3220FFF786FE2920FFF782
:10138C0083FE2D20FFF780FE2920FFF77DFE252010
:10139C00FFF77AFE2B20FFF777FE3920FFF774FE5C
:1013AC000020FFF771FE0120FFF76EFE0320FFF710
:1013BC006BFE1020FFF768FEE120FFF74DFE0320C7
:1013CC00FFF762FE1D20FFF75FFE0720FFF75CFEB4
:1013DC000620FFF759FE2E20FFF756FE2C20FFF7B4
:1013EC0053FE2920FFF750FE2D20FFF74DFE2E2037
:1013FC00FFF74AFE2E20FFF747FE3720FFF744FE8B
:10140C003F20FFF741FE0020FFF73EFE0020FFF7D4
:10141C003BFE0220FFF738FE1020FFF735FE1320AD
:10142C00FFF71AFE0A2000F055FE2920FFF714FEE4
:10143C00642000F04FFE0020FFF7DFFEFFF7FEFDFB
:10144C0010BD10B514004F2808D89F2906D80200EB
:10145C000B00FFF767FE2000FFF72EFE10BD00000B
:10146C0070B515001C004F2829D89F2927D8831840
:10147C00502B02DD50252D1AEDB20B19A02B03DDDC
:10148C0060246442641AE4B24B1E421EE318AA188C
:10149C00DBB2D2B2FFF746FE012202210E4801F068
:1014AC0003FA002201210C486C4301F0FDF90025E0
:1014BC00AC4205D101220848110001F0F5F970BDCC
:1014CC00049A6B00D65A0135300AFFF797FDF0B23B
:1014DC00FFF794FDECE7C04600040048020010B58D
:1014EC00002804D001280DD0FFF7A8FD09E0012247
:1014FC000221074801F0D8F901220421044801F027
:10150C00D3F910BD0221024801F0CEF90022F4E714
:10151C000004004810B586B00C22002103A800F08E
:10152C009DFD80210E4B89025A6990200A435A6115
:10153C005B6904240B400093009B012301A9C005A7
:10154C000293019401F022F9902000222100C005A1
:10155C0001F0AAF9034801F069FA06B010BDC046C3
:10156C00001002400401002070B5104801F0B4F9DD
:10157C0064210E4801F0F0F90024A04203D10B487D
:10158C0001F014FA0400094801F0C8F92000FFF733
:10159C0081FB0749FFF734FAE6218905FFF730FA9A
:1015AC00011CFEF735FF034B186070BD04010020D1
:1015BC003333534004000020114B10B51C68114903
:1015CC00201CFEF71BFF0423002814D10E49201CFD
:1015DC00FEF714FF032300280DD10C49201CFEF745
:1015EC000DFF0223002806D10949201CFEF706FF37
:1015FC0003005A1E9341074A1800137010BDC046D1
:10160C00040000209A997940CDCC6C4000006040D9
:10161C00CDCC4C400000002070B500F06BFDFA21E1
:10162C001C4A050013688900C31A8B420FD3106043
:10163C00FFF79AFF061CFFF7BFFF00F079FA164977
:10164C00301CFEF7BDFE041E02D000F005FC70BD80
:10165C00301C1249FEF7B4FE0600A04213D0FA214A
:10166C000F4A49001368EB1A8B42F0D30D4B1560EF
:10167C00187842425041C0B2187000F0FBFA2000BA
:10168C0000F0EEFAE3E7012000F0EAFA300000F097
:10169C00F1FADCE71C0000203333334000004040FB
:1016AC001800002016000020014B18787047C04627
:1016BC002000002010B500F0CFFB10BD002210B5AB
:1016CC00074B11201A70FFF7C7FC782000F002FDC1
:1016DC002920FFF7C1FC0220FFF700FF10BDC04618
:1016EC002000002030B58FB01C22002106A800F08D
:1016FC00B5FC14220021684600F0B0FC0224012540
:10170C00102305A80993059408950B940D9400F0EB
:10171C0077FD072300930023290068460194029368
:10172C00039300F05DFF0FB030BD000007B500F073
:10173C00E7FC80218020104B4905DA6940000A4300
:10174C00DA61DB690B400193019B01F0F1F9042391
:10175C0080200A4A400011680B43136001F0D2F953
:10176C000121080001F0FAF9FFF7BCFF00F0D0FCF2
:10177C00FFF7A4FF07BDC0460010024000700040F8
:10178C000022044B10B51A7000F0B4FC024B186028
:10179C0010BDC046290000202400002007B5002001
:1017AC00044B28211870044B009350231A00FFF7A8
:1017BC0057FE07BD290000208890000007B50222C3
:1017CC00054B28211A70054B0020009350231A005A
:1017DC00FFF746FE07BDC04629000020882C0000FC
:1017EC0010B50020FFF709FD0A24200064210F4AE0
:1017FC00FFF727FE2000073465210C4AE4B2FFF7FF
:10180C0020FE492CF1D100242000142160434942D0
:10181C00FEF7D8FC5F30C1B260001430034AC0B28E
:10182C000134FFF70EFE142CEED110BD084200005F
:10183C0037B50025374B040018703C220C2391213E
:10184C000A200095FFF7CEFC012C2BD1324C0A2339
:10185C002822922114200094FFF7C4FC0623242292
:10186C00942116200095FFF7BDFC0623032294213A
:10187C0018200094FFF7B6FC0623032294211D20A8
:10188C000094FFF7AFFC062303229421222000943E
:10189C00FFF7A8FC06230322942127200094FFF7CE
:1018AC00A1FC37BD1D4C0A23322292210F2000943B
:1018BC00FFF798FC06232E22942111200095FFF7A8
:1018CC0091FC06230322942113200094FFF78AFC39
:1018DC0006230322942118200094FFF783FC06238F
:1018EC00032294211D200094FFF77CFC0623032285
:1018FC00942122200094FFF775FC062303229421E7
:10190C0027200094FFF76EFC0623032294212C2041
:10191C000094C4E72800002020FD0000FF07000011
:10192C00F0B506000D0085B0041C1F2800D91F243B
:10193C00E4B22B1C1F2D00D91F23DAB20392674A85
:10194C00674F1470674A1370674B1A78012A06D0D8
:10195C0001221A70FFF744FF3878FFF769FF3B78D4
:10196C00002B00D06FE0182E5FD8102E60D8082EF8
:10197C0060D8FC27FF000023082214210A200093C2
:10198C002833FFF72FFC28233C2163435B11DBB288
:10199C00C91A08220A20C9B20097FFF723FC182D98
:1019AC004AD8102D4BD8082D4BD8FC24E40000232A
:1019BC0008221421412000932833FFF713FC28231D
:1019CC003C21039A412053435B11DBB2C91A082214
:1019DC00C9B20094FFF706FC0023052E01D9FC23A5
:1019EC00DB0000930A22082382210520FFF7FAFB73
:1019FC000023052D01D9FC23DB000A228221412082
:101A0C0000930823FFF7EEFB0723384C180006223F
:101A1C0078210094FFF7E6FB072306227821432068
:101A2C000094FFF7DFFB05B0F0BDF8273F02A2E7FB
:101A3C002F4FA0E72F4F9EE7F8242402B7E72C4C3A
:101A4C00B5E72C4CB3E7039BE4186510312C3ED85A
:101A5C00102D3FDC082D3FDCFC26F600002428234B
:101A6C00082214210A200094FFF7BCFB282308222B
:101A7C00142141200094FFF7B5FB282310221421D8
:101A8C0024200094FFF7AEFB28233C216B435B1111
:101A9C00DBB2C91A10222420C9B20096FFF7A2FBB0
:101AAC0012230A22782105200094FFF79BFB1223B6
:101ABC000A22782141200094FFF794FB052D00DDCC
:101ACC000B4C0823142282211E200094A9E7F8262F
:101ADC003602C3E7064EC1E7064EBFE722000020E0
:101AEC00280000202100002029000020FFFF00001A
:101AFC0020FD0000E0FF000010B500F0FBFA084AE2
:101B0C001368C31A312B0AD9064B10601B78012BB2
:101B1C0005D1054B1978054B1878FFF701FF10BD5F
:101B2C002400002029000020210000202200002099
:101B3C00002373B5162200930500052132200C33C7
:101B4C00FFF750FB322420000521264AFFF779FCD1
:101B5C00200001340E21234AE4B2FFF772FC462C1C
:101B6C00F1D1413C1F4E210032003220FFF769FCBD
:101B7C002100013432004520E4B2FFF762FC0F2C47
:101B8C00F0D106230222072146200096FFF72AFBFC
:101B9C006B1EDBB2032B11D80024134A5B009E5A38
:101BAC00A00034300134062303220721C0B2009672
:101BBC00E4B2FFF717FBA542F2D873BD002DFCD1A0
:101BCC0000F098FAFA214900FEF772FAC007F4D532
:101BDC00F8231B0200931022062307213420FFF761
:101BEC0001FBEAE7FFFF0000802C0000012210B58A
:101BFC0042404021014800F057FE10BD000800484B
:101C0C000200902010B50821C00500F04DFE10BD5B
:101C1C00012210B542402021014800F045FE10BDC4
:101C2C000008004801224240902010B51021C00548
:101C3C0000F03AFE10BD000010B5040002000821AF
:101C4C00024800F031FE024B1C7010BD000C004825
:101C5C002A000020014B18787047C0462A0000204B
:101C6C00012210B542400221014800F01DFE10BDBA
:101C7C00000800480121020010B502484A4000F05B
:101C8C0013FE10BD00080048F0B58BB00C220021EB
:101C9C0007A800F0E3F98021504B89025A6901240E
:101CAC000A435A615A694E480A4080210192019AAE
:101CBC005A69C9020A435A615A6910250A4080219F
:101CCC000292029A5A6909030A435A615A694026D8
:101CDC000A4080210392039A5A6949030A435A61C4
:101CEC005B6906940B400493049BF82305A90593A8
:101CFC0000F04CFD062305A93948059300F046FD7C
:101D0C0022000221364800F0CFFD22000421344885
:101D1C0000F0CAFD902005A9C005059500F036FD20
:101D2C009020202700222900C00500F0BDFD083DB1
:101D3C0005A92C48059500F029FD00222900294809
:101D4C0000F0B2FD05A92848059600F01FFD002201
:101D5C003100254800F0A8FD05A92348059700F09F
:101D6C0015FD22003900204800F09EFD902005A9A9
:101D7C00C005059500F00AFD902000222900C00541
:101D8C0000F092FD05A91848059400F0FFFC220014
:101D9C002100154800F088FD063D05A9124805955F
:101DAC0000F0F4FC220029000F4800F07DFD002318
:101DBC0005A90B4806930794059400F0E7FC8023D3
:101DCC0005A90848059300F0E1FC064805A905960D
:101DDC0000F0DCFC00F05AF80BB0F0BD0010024033
:101DEC0000040048000C00480008004810B5012011
:101DFC00FFF7FCFE0A2000F06DF90120FFF700FF51
:101E0C000A2000F067F9FFF701FA0220FFF766FBE2
:101E1C00FFF7C4FC0120FFF7FBFE322000F05AF95B
:101E2C000020FFF7FFFEFFF79FFB0A49FEF7E6FADB
:101E3C0000280AD00120FFF713FF0020FFF71AFF3C
:101E4C00FA20800000F046F910BDFFF709FF0120D1
:101E5C00F4E7C0460000404010B50120FFF7E2FE59
:101E6C000A2000F037F9FFF7A9FCFA20800000F0F7
:101E7C0031F90120FFF7BAFE0120FFF7C1FE0A205D
:101E8C0000F028F9FFF752FC10BD0000002330B51C
:101E9C001D002E4989B0CD5401338A2BFBD10C2265
:101EAC00002105A800F0DAF88022294C120363699E
:101EBC00284813436361636903A913400293029B8F
:101ECC00102303930D3B049300F060FC082321487E
:101EDC0003A9039300F05AFC0C22002103A800F084
:101EEC00BDF88022A36992001343A361A3691A4C25
:101EFC0013400193019B194B200023600123A56023
:101F0C006360E56025616561A561E56125626562D7
:101F1C00A562E5622563656300F0BAFD002801D077
:101F2C00FFF76AF80B23039380235B0104930223CE
:101F3C00200003A9059300F049FD002801D0FFF70C
:101F4C005BF80022064B1A8009B030BD74000020EB
:101F5C00001002400008004830000020002401401E
:101F6C002C0000200022024B1A80024B1A70704782
:101F7C002C000020F500002070B52C4B2C491B7850
:101F8C00002B51D000250C0028002B00294E228854
:101F9C00921912B2D61792197240161C92B29A422A
:101FAC0000D21E1C0234E28FB3B2224E921912B22E
:101FBC00D61792197240161C92B2824200D2061C9D
:101FCC000135B0B2202DE1D10A00863213800A000F
:101FDC00883216800022092B0AD91F325343DB1298
:101FEC00182B04DD5B080C33934200D91300DAB2D2
:101FFC000B0082331A70002309280AD91F2460436E
:10200C00C312182B04DD5B080C33A34200D9230048
:10201C00DBB208008330D21803700B0052108433EB
:10202C001A70002381310B7070BDC046F500002082
:10203C007400002000F8FFFF014B18787047C04671
:10204C00F6000020014B18787047C046F7000020BE
:10205C00014B18787047C046F80000200300821826
:10206C00934200D1704719700133F9E7FEE77047CE
:10207C007047000070B50500FA200D4B8000196800
:10208C00FEF716F80B4C01002068FEF711F800F073
:10209C00A3F804000120002C09D1032D07D8023825
:1020AC002200290000F05AF82000034B1D6070BD7F
:1020BC0008000020100000200C00002010B50320A8
:1020CC0000F02EF80020FFF7D5FFFFF7D1FF00201E
:1020DC0010BD0000054A1168431C02D0044B1B685C
:1020EC00C01813685B1A8342FBD3704700010020B1
:1020FC0008000020014B18687047C0460001002002
:10210C000221024A13688B431360704710E000E011
:10211C000223024A11680B431360704710E000E081
:10212C00C31E10B50400042B03D90C210748FFF77C
:10213C009DFFE021064AC9002402D3680C400549E2
:10214C000B401C43044B2343D36010BD88F40000A8
:10215C0000ED00E0FFF800000000FA0570B5040087
:10216C000D0016000F2A03D917211748FFF77EFF21
:10217C000F2D03D918211448FFF778FF0722134BB2
:10218C00DB681B0A1340591FD31A022901D90223F9
:10219C00002101225242100098408A4085438D4014
:1021AC0096433543AD01EDB2002C05DBA408084B7A
:1021BC00C034A400E55070BD0F231C40054BA40097
:1021CC00E4186560F7E7C04688F4000000ED00E015
:1021DC0000E100E008ED00E08022431E52040120E3
:1021EC00934208D2C021044A00205360034B9964E7
:1021FC00072390601360704710E000E000ED00E0F2
:10220C00F0B5040085B0002853D003680F2B03D918
:10221C008021B148FFF72AFF2368DB0719D4236814
:10222C009B0700D56FE023681B0700D5B8E0236837
:10223C005B0700D5E2E0A369022B04D9B521A648BF
:10224C004900FFF713FFA369002B00D052E10020D7
:10225C0027E06368022B03D986219F48FFF706FF0E
:10226C000C229E4D6B681340042B1CD06B681340E2
:10227C00082B00D16B686368012B1CD180232A6862
:10228C005B0213432B60FFF735FF80260700B60275
:10229C002B683342C3D1FFF72DFFC01B6428F7D93D
:1022AC00032005B0F0BD2B689B03B8D56368002BE9
:1022BC00B5D10120F5E7002B15D12B68884A802673
:1022CC0013402B602B68874AB60213402B60FFF734
:1022DC0011FF07002B683342A1D0FFF70BFFC01B87
:1022EC006428F7D9DCE7022B05D180232A68DB02AE
:1022FC0013432B60C2E72B68794A13402B602B6881
:10230C00784A1340BEE7E368012B03D9B921724820
:10231C00FFF7ACFE23691F2B03D9BA216E48FFF7D8
:10232C00A5FE0C226D4D6B68134206D06B681340F2
:10233C00082B10D16B68DB030DD42B689B0702D5DF
:10234C00E368012BB5D1F8212A6823698A43DB00A5
:10235C0013432B6067E7E2680123002A0FD02A6839
:10236C00022613432B60FFF7C5FE07002B68334290
:10237C00E9D1FFF7BFFEC01B6428F7D990E72A68A4
:10238C0002269A432A60FFF7B5FE07002B683342FA
:10239C0000D148E7FFF7AEFEC01B6428F6D97FE7F3
:1023AC006369012B03D9FA214B48FFF75FFE626981
:1023BC0001234A4D002A10D06A6A022613436B622D
:1023CC00FFF798FE07006B6A334200D02FE7FFF748
:1023DC0091FEC01B6428F6D962E76A6A02269A430A
:1023EC006A62FFF787FE07006B6A334200D11EE773
:1023FC00FFF780FEC01B6428F6D951E7A368022BB7
:10240C0004D9932134484900FFF730FE8022002183
:10241C00324D5205EB690091134208D1EB6913431D
:10242C00EB61EB6913400393039B0123009380271B
:10243C002D4E7F0033683B4215D0A368012B22D16F
:10244C002A6A13432B62FFF755FE022706002B6AFC
:10245C003B4239D0009B012B00D0ECE6EB69234AC0
:10246C001340EB61E7E633683B433360FFF742FE12
:10247C00019033683B42E0D1FFF73CFE019BC01A50
:10248C006428F6D90CE7002B15D101222B6A022700
:10249C0093432B622B6A033293432B62FFF72AFE82
:1024AC0006002B6A3B42D5D0FFF724FE104B801B55
:1024BC009842F6D9F4E6022BC5D12A6A013B1343A4
:1024CC002B622A6A0423BCE7FFF714FE084B801B1F
:1024DC009842BCD9E4E6C046BEF4000000100240AD
:1024EC00FFFFFEFFFFFFFBFF00700040FFFFFFEF51
:1024FC00881300000C21364D6A680A40082A52D015
:10250C00344E022B3DD1E369012B04D9742132489E
:10251C00FF31FFF7ABFD236A0E2B04D9BA212E48ED
:10252C004900FFF7A3FD2B6833402B60FFF7E2FD5A
:10253C0080260700B6042B6833421CD16B68274AEF
:10254C001340E2691343226A8024920413436B60A4
:10255C0080232A685B0413432B60FFF7CBFD060036
:10256C00A4042B68234200D071E6FFF7C3FD801B47
:10257C006428F6D994E6FFF7BDFDC01B6428DAD9B0
:10258C008EE62B68802433402B60FFF7B3FD0600EA
:10259C00A4042B68234200D159E6FFF7ABFD801B46
:1025AC006428F6D97CE6012B00D182E6802368688A
:1025BC00E2695B020340934200D07AE6F0239B036E
:1025CC001840236AC01A431E9841C0B269E6C0463F
:1025DC0000100240FFFFFFFEBEF40000FFFFC2FF31
:1025EC00F7B504000E00002801D10120FEBD0368E0
:1025FC00072B04D9CC215A48FF31FFF737FD012EA8
:10260C0004D9E62156484900FFF730FD0722554D05
:10261C002B681340B3421DD323689A0723D4236835
:10262C00DB074AD407222B681340B34275D82368C2
:10263C004D4D5B077BD46B684C494D4A1B061B0FF9
:10264C00D25C0B68D3400B604A4B1868FFF712FD45
:10265C000020CBE72B68934333432B602B6813404C
:10266C00B342C2D1D8E7404F5B0704D5E0237A6868
:10267C00DB0013437B60A36880221900914315D0C3
:10268C00202219009143902910D040221900914327
:10269C00A0290BD0102219009143C02906D0F02B91
:1026AC0004D0EC212E48FF31FFF7E0FCF0227B68D0
:1026BC009343A26813437B60B1E76368022B04D990
:1026CC00F92127484900FFF7D1FC274F62683B6886
:1026DC00012A1AD19B0300D487E703217B688B4323
:1026EC0013437B60FFF706FD01900C237A681A40B8
:1026FC0063689B009A4295D0FFF7FCFC019BC01AC3
:10270C001D4B9842F1D9032070E7022A02D19B019C
:10271C00E3D46AE79B07E0D467E72B689343334322
:10272C002B602B681340B34200D05EE77FE7E36871
:10273C00124A13420DD0A021114AC9001A408A42F4
:10274C0007D0C022D200934203D005480D49FFF7B1
:10275C008DFC6B680C4A1340E26813436B606AE7AC
:10276C00BEF40000002002400010024010000020C7
:10277C008BF500000C00002088130000FFFBFFFF0E
:10278C00FFFDFFFF2E020000FFF8FFFF9023F7B5BF
:10279C00DB0504000D00984209D0384B984206D056
:1027AC00374B984203D00A213648FFF75FFC2B6861
:1027BC009AB2002A03D080225202934203D30B21F7
:1027CC003048FFF753FC6B68032B06D9113B012BE8
:1027DC0003D90C212B48FFF749FCAB68022B03D91A
:1027EC000D212848FFF742FC0322002394462A6857
:1027FC001100D94000D1F7BD0121994001910A4245
:10280C0030D067465E00B74060462268BA4311007C
:10281C006A681040B04008432060501E012823D83D
:10282C006068019988436060E968A068B140B8436A
:10283C000143A160A968E068B140B8430143E1607D
:10284C0010218A43022A0DD107201840800001393B
:10285C008140DA089200A218166A8E4329698140D9
:10286C00314311620133C2E7100011380128DBD863
:10287C006068019901436160D6E7C04600040048D6
:10288C0000080048F1F4000070B504000D1E03D1DF
:10289C0078210448FFF7EAFB20692840431E984141
:1028AC00C0B270BDF1F4000070B505000C0016004C
:1028BC00002903D188210748FFF7D8FB012E05D941
:1028CC0089210448FFF7D2FBAC6170BD002EFBD10F
:1028DC00AC62FAE7F1F4000070B50E4B0468050029
:1028EC009C4203D05F210C48FFF7C0FB40352B788E
:1028FC000220012B0CD00123A2681A4202D1A2683B
:10290C001343A36004230020A2681343A360287020
:10291C0070BDC0460024014025F5000070B50C4B7D
:10292C00056804009D4203D079210A48FFF79EFBFD
:10293C00403423780220012B09D01023AA681A43B3
:10294C00AA60AA68100018401A42FAD1207070BD13
:10295C000024014025F50000F7B504000D000668C1
:10296C00FFF7C8FB0F4B226801909A4203D09321CA
:10297C000D48FFF77BFB042733683B4202D0002055
:10298C00376006E06B1CF7D0002D03D10723032022
:10299C00A363FEBDFFF7AEFB019BC01AA842EBD9A7
:1029AC00F4E7C0460024014025F5000010B5054BA6
:1029BC0004689C4203D0AF210348FFF757FB206CFF
:1029CC0010BDC0460024014025F5000070B5154B24
:1029DC00046806000D009C4203D0BA211248FFF790
:1029EC0045FB2B68112B03D9BB210F48FFF73EFB8E
:1029FC00AB68072B03D9BC210B48FFF737FB4036DC
:102A0C0033780220012B0CD001232868A16A834063
:102A1C0000209943A162A16A0B43A362AB68636176
:102A2C00307070BD0024014025F5000070B5040025
:102A3C000568FFF75FFB134B226806009A4203D030
:102A4C00D7211148FFF712FB403423780220012BC9
:102A5C0017D001222270AB689343AB608023AA6825
:102A6C001B061343AB60AB68002B02DB002020700D
:102A7C0007E0FFF73FFB801B0A28F4D90023032053
:102A8C00237070BD0024014025F500007047000044
:102A9C0070B504000120002C2FD0184B22689A42EC
:102AAC0003D037211648FFF7E1FA20002568FFF71D
:102ABC00EDFF0223A36300230122E363AB68E1680B
:102ACC009343AB60A3680B4321690B43216A0B430F
:102ADC00616A0B43E16A0B43A16A0B43216B0B4305
:102AEC0061690B43616B0B43EB60AB681343AB60E9
:102AFC002B681342FCD00020A26370BD002401405F
:102B0C0025F50000421E074BFF3A10B504001A428F
:102B1C0003D01A210448FFF7A9FA044B5868204344
:102B2C00586010BDFFFEFFFF58F50000007000401C
:102B3C00421E074BFF3A10B504001A4203D0232162
:102B4C000448FFF793FA044A5368A343536010BD3B
:102B5C00FFFEFFFF58F500000070004070B5050047
:102B6C000C00012803D944211248FFF77FFA631E99
:102B7C00012B03D945210F48FFF778FA02210E4BA0
:102B8C001A688A431A600122186890432843186017
:102B9C000A4B033219690A431A61012C05D130BF63
:102BAC0004211A698A431A6170BD40BF20BF20BF3F
:102BBC00F6E7C04658F500000070004000ED00E05C
:102BCC000121114B11481A680A431A605A680240D5
:102BDC005A601A680E4802401A601A680D48024082
:102BEC001A605A680C4802400F205A60DA6A824315
:102BFC00DA621A6B094802401A635A6B8A435A63A9
:102C0C0000229A607047C046001002400CB8FFF8D2
:102C1C00FFFFF6FEFFFFFBFFFFFFC0FFACFEFFFF59
:102C2C000D4885460D480E490E4A002302E0D45843
:102C3C00C4500433C4188C42F9D30B4A0B4C0023F8
:102C4C0001E013600432A242FBD3FFF7B9FFFFF798
:102C5C000EFAFEF77FF8FEE70020002000000020AF
:102C6C00140000209CF500001400002048010020F6
:042C7C00FEE700006F
:102C800020FDE0FFE007E00700000000000000007A
:102C90000000000000000000000000000000000034
:102CA0000000000000000000000000000000000024
:102CB0000000000000000000000000000000000014
:102CC0000000000000000000000000000000000004
:10F480000000000000000000447269766572732F6E
:10F49000574233324C3030335F48414C5F447269DD
:10F4A0007665722F5372632F776233326C3030334C
:10F4B0005F68616C5F636F727465782E630044727D
:10F4C00069766572732F574233324C3030335F4860
:10F4D000414C5F4472697665722F5372632F776275
:10F4E00033326C3030335F68616C5F7263632E63FC
:10F4F00000447269766572732F574233324C303054
:10F50000335F48414C5F4472697665722F53726372
:10F510002F776233326C3030335F68616C5F6770B5
:10F52000696F2E6300447269766572732F57423398
:10F53000324C3030335F48414C5F447269766572BB
:10F540002F5372632F776233326C3030335F6861D0
:10F550006C5F6164632E6300447269766572732F19
:10F56000574233324C3030335F48414C5F4472690C
:10F570007665722F5372632F776233326C3030337B
:10F580005F68616C5F7077722E630000000000009E
:0CF5900000000001020304060708090047
:10F59C0003000000CDCC6C40010000000400000012
:04F5AC000048E8012A
:0400000300002C2DA0
:00000001FF
