:10000000002000206D2A0000BD2A0000BD2A00004B
:1000100000000000000000000000000000000000E0
:10002000000000000000000000000000BD2A0000E9
:100030000000000000000000BD2A0000BD2A0000F2
:10004000BD2A0000BD2A0000BD2A0000BD2A000014
:10005000BD2A0000BD2A0000BD2A0000BD2A000004
:1000600000000000BD2A0000BD2A0000BD2A0000DB
:10007000BD2A0000BD2A0000BD2A0000BD2A0000E4
:10008000BD2A00000000000000000000BD2A0000A2
:1000900000000000BD2A0000BD2A0000BD2A0000AB
:1000A00000000000BD2A000000000000BD2A000082
:0C00B000BD2A000000000000000000005D
:1000BC00002243088B4274D303098B425FD3030A9B
:1000CC008B4244D3030B8B4228D3030C8B420DD3AE
:1000DC00FF22090212BA030C8B4202D3121209023C
:1000EC0065D0030B8B4219D300E0090AC30B8B427A
:1000FC0001D3CB03C01A5241830B8B4201D38B0328
:10010C00C01A5241430B8B4201D34B03C01A5241CC
:10011C00030B8B4201D30B03C01A5241C30A8B420F
:10012C0001D3CB02C01A5241830A8B4201D38B02FA
:10013C00C01A5241430A8B4201D34B02C01A52419E
:10014C00030A8B4201D30B02C01A5241CDD2C30910
:10015C008B4201D3CB01C01A524183098B4201D38C
:10016C008B01C01A524143098B4201D34B01C01A77
:10017C00524103098B4201D30B01C01A5241C308EF
:10018C008B4201D3CB00C01A524183088B4201D35E
:10019C008B00C01A524143088B4201D34B00C01A4A
:1001AC005241411A00D20146524110467047FFE7B6
:1001BC0001B5002000F0F0F802BDC0460029F7D0D0
:1001CC0076E7704703460B437FD4002243088B42EB
:1001DC0074D303098B425FD3030A8B4244D3030BC2
:1001EC008B4228D3030C8B420DD3FF22090212BA87
:1001FC00030C8B4202D31212090265D0030B8B4203
:10020C0019D300E0090AC30B8B4201D3CB03C01AEC
:10021C005241830B8B4201D38B03C01A5241430BC7
:10022C008B4201D34B03C01A5241030B8B4201D3B7
:10023C000B03C01A5241C30A8B4201D3CB02C01A22
:10024C005241830A8B4201D38B02C01A5241430A9A
:10025C008B4201D34B02C01A5241030A8B4201D389
:10026C000B02C01A5241CDD2C3098B4201D3CB0130
:10027C00C01A524183098B4201D38B01C01A5241DF
:10028C0043098B4201D34B01C01A524103098B42E3
:10029C0001D30B01C01A5241C3088B4201D3CB00CE
:1002AC00C01A524183088B4201D38B00C01A5241B1
:1002BC0043088B4201D34B00C01A5241411A00D261
:1002CC0001465241104670475DE0CA0F00D04942CA
:1002DC00031000D34042534000229C4603098B423A
:1002EC002DD3030A8B4212D3FC22890112BA030AC2
:1002FC008B420CD3890192118B4208D38901921144
:10030C008B4204D389013AD0921100E08909C309C8
:10031C008B4201D3CB01C01A524183098B4201D3CA
:10032C008B01C01A524143098B4201D34B01C01AB5
:10033C00524103098B4201D30B01C01A5241C3082D
:10034C008B4201D3CB00C01A524183088B4201D39C
:10035C008B00C01A5241D9D243088B4201D34B00B7
:10036C00C01A5241411A00D20146634652415B10F9
:10037C00104601D34042002B00D5494270476346DA
:10038C005B1000D3404201B5002000F005F802BD1F
:10039C000029F8D016E770477047C046844608001D
:1003AC006146FFE71FB500F0AFF8002801D400212B
:1003BC00C8421FBD10B500F02BF84042013010BDF3
:1003CC0010B500F0A1F8002801DB002010BD0120C1
:1003DC0010BDC04610B500F097F8002801DD0020D4
:1003EC0010BD012010BDC04610B500F03DF800282E
:1003FC0001DC002010BD012010BDC04610B500F07E
:10040C0033F8002801DA002010BD012010BDC046D1
:10041C0030B543024200C50F48025B0A440A48004B
:10042C009C46120E000EC90FFF2A11D0FF280CD0CB
:10043C00012382420AD1A44508D18D4211D0002A51
:10044C0004D163465A1E934100E00123180030BDCD
:10045C000123FF28FAD162462243F7D12B004B40EF
:10046C00F4E70023F2E7C04643025B0A42009C46D5
:10047C00C30F480210B5440A4800120E000EC90FF3
:10048C00FF2A1AD0FF280BD0002A24D1624600285C
:10049C001ED1002C2ED0002A32D1480001380BE09E
:1004AC00002C2AD1002A02D16246002AF5D08B42B8
:1004BC001DD001205B42184310BD6246002A1CD19E
:1004CC00FF28F6D1002C18D120008B42F1D1F3E794
:1004DC00002AE2D0EBE70028EBD08B42E9D1824234
:1004EC00E7DC04DBA445E4D80020A445E4D25800A2
:1004FC000138E1E7002ADFD0DBE702204042DBE7EE
:10050C008B42D6D1EEE7C04643025B0A42009C46C2
:10051C00C30F480210B5440A4800120E000EC90F52
:10052C00FF2A15D0FF280BD0002A1AD162460028CA
:10053C001DD1002C22D0002A32D1480001380FE006
:10054C00002C0CD1002A14D16246002AF5D010E000
:10055C006246002A03D1FF2805D1002C1CD00220B2
:10056C0010BD00280DD101205B421843F8E7002A8A
:10057C00E3D08B42F7D158000138F1E7002AEFD0D5
:10058C00F1E78B42EFD18242EDDCF4DBA445EAD8F3
:10059C000020A445E4D2EEE720008B42E3D1DFE754
:1005AC008B42E0D1F2E7C046F0B54646D6464F4600
:1005BC004402C0B5C30F460098460D1C640A360EA3
:1005CC0000D1CBE0FF2E6ED08023E400DB041C4373
:1005DC00002399469A467F3E6F026B007F0A1B0EE2
:1005EC00ED0F002B6DD0FF2B00D1A6E07F3BF61852
:1005FC004B460A2B00DD82E08023FF00DB041F4307
:10060C0043466B4098464B460022022B0FDD494671
:10061C0001238B40A621C9000B4200D06FE0902132
:10062C0089000B4200D0D3E08821194264D1200C00
:10063C002404240C21003B0C3F043F0C79435C4305
:10064C0047435843E4190B0C1B199F4202D98022D3
:10065C005202801809041A04090C52189401611EE4
:10066C008C411B0C920E1B1814439B011C431B0149
:10067C0000D5CDE030007F30002800DCAEE0630711
:10068C000BD00F2332002340042B06D0043423015B
:10069C0003D580321000684B1C40FE2866DCA30199
:1006AC005B0AC0B21EE0002C00D08BE008239946F8
:1006BC00063B6F029A466B007F0A1B0EED0F002B58
:1006CC0091D1002F61D14A4601231A4391460A2A3F
:1006DC0015DC43466B4098464B460122022B96DCB8
:1006EC0000200023C00518434346DD072843E0BC27
:1006FC00BA46B146A846F0BDA8463C0092465346C1
:10070C00022B33D0032B11D0012BE9D030008030D9
:10071C00721C002863DD6307B9D00F232340042B20
:10072C00B4D1B4E70F2A78D0A8463C008023DB0371
:10073C0023435B02FF205B0AD4E7FF36002F2FD147
:10074C0002234A4613430A2BD9DC42466A409046A0
:10075C004A46002A0AD09946022258E7002C08D1B2
:10076C0004239946033B00269A4635E7FF200023D5
:10077C00B8E7200000F0A4F87626431F9C40002325
:10078C00764299469A46361A26E7380000F098F8D1
:10079C004B46361A763E0A2BB1DC053887402FE7DC
:1007AC0003234A461A4313000A2ABBDC42466A401A
:1007BC00904601229A40882113000322194200D14D
:1007CC0035E799E70C239946093BFF269A4603E740
:1007DC00002398468023FF20DB0383E732000300CD
:1007EC001A3300DA7CE79E320123210094401B1A55
:1007FC00D940621E94410C43630704D00F2323405D
:10080C00042B00D00434630111D50120002369E7C7
:10081C00012362081C40144378E78023DB031C424D
:10082C0084D01F4282D1A846FF203B435AE7A30144
:10083C0000205B0A56E7C046FFFFFFF710B5040027
:10084C000020002C0ED0200000F03AF803009E206F
:10085C00C01A072B09DD082B2CD0083B9C406402E6
:10086C00640AC0B2C005204310BD042B16DD052B55
:10087C0001D05A1F9440114A224061070AD00F211F
:10088C002140042906D00432510103D59F200B4985
:10089C00C01A0A409201540AC0B2E3E71A002100C0
:1008AC001B3291400A00511E8A410521C91ACC40C5
:1008BC001443E0E764029620640AD3E7FFFFFFFBD2
:1008CC001C2101231B04984201D3000C10391B0A74
:1008DC00984201D3000A08391B09984201D3000938
:1008EC00043902A2105C40187047C046040302028F
:1008FC00010101010000000000000000F0B501251D
:10090C0002261027A5B001F007FA1C22002110A81E
:10091C0001F0D2F9142200210AA801F0CDF90FA898
:10092C0000240F96139715961796129501F096FAC8
:10093C00072329000AA80A930B960C940D9401F036
:10094C007DFC0C22210011A801F0B6F98022D74EB3
:10095C0092027369D6481343736173690FA91340EC
:10096C0080220493049B7369D202134373617369ED
:10097C00134080220593059B736912031343736123
:10098C007369134080220693069B736952031343C9
:10099C007361736910951340802203930F927D3A13
:1009AC00039B129201F020FD90200FA9C0050F9718
:1009BC0001F01AFD902004220FA9C0050F9201F03E
:1009CC0013FD0422BB480FA90F9210951194129499
:1009DC0001F00AFD0821B7480F910FA901F004FDA1
:1009EC002A008021B24801F08DFD902039002A00A8
:1009FC00C00501F087FD90202A000421C00501F0FC
:100A0C0081FD2A000421AB4801F07CFD2A0008215D
:100A1C00A84801F077FDA7480FA90F9510951194E0
:100A2C00129401F0E1FC2A002900A24801F06AFDB1
:100A3C0030379F480FA90F9701F0D6FC2A003900D8
:100A4C009B4801F05FFD9B480FA90F9710941195DF
:100A5C0001F0CAFC202397480FA90F9301F0C4FCA6
:100A6C00082195480F910FA910951194129401F03B
:100A7C00BBFC22000821904801F044FD3C3F8E480D
:100A8C000FA90F9701F0B0FC390022008A4801F041
:100A9C0039FD280000F030FFC82001F049F9200092
:100AAC0000F02AFF642001F043F90C2221000CA86D
:100ABC0001F002F9542221000FA801F0FDF8802169
:100ACC00B36949010B43B361B36903220B40029331
:100ADC00029B60230AA978480A935E3B0D920B9304
:100AEC0001F082FC754B10970F938023FD371B028E
:100AFC00FF370FA81193159712941394149416940E
:100B0C0017941894199401F06FFD0C22210007A87A
:100B1C0001F0D2F80C2221000CA801F0CDF8B36939
:100B2C0003223B43B361B36902263B40FD3F60485F
:100B3C0001930AA9FF3F0B92019B0A9701F054FC09
:100B4C005B480AA90A9501F04FFC59480AA90A9674
:100B5C0001F04AFC5A4B80210F93802349015B0022
:100B6C000FA81096139314961C911194129415942B
:100B7C0016941794189419941A941B9501F0A8FEC6
:100B8C00072307A90FA809930796089501F03EFEC5
:100B9C00089607A904360FA80794099601F036FEAB
:100BAC00032207A90FA808920795099601F02EFEBB
:100BBC000FA801F05BFE00F0B3FE00F025FC00F086
:100BCC00EBFA00F051FF00F0FBFF00F04DFC2000B1
:100BDC0000F072FC00F064FB00F0FCFF394B1A785B
:100BEC00002A15D000221A7001F054F8040001F00C
:100BFC0057F8050000F07AFE012803D101F056F8F1
:100C0C00040005002900200000F0CEFC00F0B8FD27
:100C1C004021284801F066FC002818D1323001F040
:100C2C0087F84021234801F05DFC00280FD12E24C9
:100C3C00FF3440211F4801F055FC002807D10A2041
:100C4C00013C01F075F8002CF3D100F077FB20216A
:100C5C00184801F047FC00281DD1323001F068F82B
:100C6C002021144801F03EFC002814D12021114809
:100C7C0001F038FC002815D0134C20784342584121
:100C8C00C0B2207000F018FC207801384342584163
:100C9C00C0B200F01DFE00F04BFB01289AD100F011
:100CAC0089FB97E70A2001F043F8DFE700100240C8
:100CBC0000040048000C00480008004800300140C7
:100CCC0000240140150000201400002072B6FEE73D
:100CDC0007B56B46D91D01230870012202485B42FF
:100CEC0001F028FC07BDC0460401002010B504002B
:100CFC00902000221021C00501F004FC002280216C
:100D0C00054801F0FFFB2000FFF7E2FF01228021E4
:100D1C00014801F0F7FB10BD0004004810B50400B9
:100D2C00902001221021C00501F0ECFB0022802153
:100D3C00054801F0E7FB2000FFF7CAFF01228021E4
:100D4C00014801F0DFFB10BD0004004810B50400A1
:100D5C00902001221021C00501F0D4FB002280213B
:100D6C00074801F0CFFB200AFFF7B2FFE0B2FFF714
:100D7C00AFFF01228021024801F0C4FB10BDC04628
:100D8C0000040048902010B501220421C00501F098
:100D9C00B9FB0A2000F0CCFF902000220421C005F2
:100DAC0001F0B0FB0F2000F0C3FF902001220421C2
:100DBC00C00501F0A7FB782000F0BAFF10BDF8B514
:100DCC00070016000D001C002A20FFF78FFF0020E3
:100DDC00FFF7A4FF3800FFF7A1FF0020FFF79EFFED
:100DEC003000FFF79BFF2B20FFF780FF0020FFF761
:100DFC0095FF2800FFF792FF0020FFF78FFF2000E0
:100E0C00FFF78CFF2C20FFF771FFF8BD70B51C00AD
:100E1C0004AB1E8883181500502B02DD50252D1AAB
:100E2C00EDB20B19A02B03DD60246442641AE4B20A
:100E3C004B1E421EE318AA18DBB2D2B2FFF7BFFF5B
:100E4C00902001221021C00501F05CFB00228021C2
:100E5C000A486C4301F056FB0025A54205D101223E
:100E6C008021064801F04EFB70BD300AFFF730FFC1
:100E7C00F0B2FFF72DFF0135EFE7C0460004004844
:100E8C0013B504AC24884F2804D89F2902D80094A9
:100E9C00FFF7BCFF13BD07B500210090A023502223
:100EAC000800FFF7B3FF07BD10B514004F2808D892
:100EBC009F2906D802000B00FFF781FF2000FFF7E7
:100ECC0045FF10BD70B515001C004F282AD89F296E
:100EDC0028D88318502B02DD50252D1AEDB20B1992
:100EEC00A02B03DD60246442641AE4B24B1E421E44
:100EFC00E318AA18DBB2D2B2FFF761FF90200122EF
:100F0C001021C00501F0FEFA002280210B486C4331
:100F1C0001F0F8FA0025AC4205D1012280210748E6
:100F2C0001F0F0FA70BD049A6B00D65A0135300A04
:100F3C00FFF7CEFEF0B2FFF7CBFEECE70004004863
:100F4C00032806D8044B4000C35A044A1268936322
:100F5C00704796239B00F8E7C02A00009C010020F4
:100F6C0010B5FFF70FFF0120FFF7C0FE962000F031
:100F7C00DFFE1120FFF7BAFEFA20400000F0D8FE89
:100F8C00B120FFF7B3FE0120FFF7C8FE2C20FFF7BE
:100F9C00C5FE2D20FFF7C2FEB220FFF7A7FE0120F1
:100FAC00FFF7BCFE2C20FFF7B9FE2D20FFF7B6FE95
:100FBC00B320FFF79BFE0120FFF7B0FE2C20FFF7BC
:100FCC00ADFE2D20FFF7AAFE0120FFF7A7FE2C2077
:100FDC00FFF7A4FE2D20FFF7A1FEB420FFF786FE3D
:100FEC000720FFF79BFEC020FFF780FEA220FFF733
:100FFC0095FE0220FFF792FE8420FFF78FFEC120A2
:10100C00FFF774FEC520FFF789FEC220FFF76EFEC6
:10101C000A20FFF783FE0020FFF780FEC320FFF7B6
:10102C0065FE8A20FFF77AFE2A20FFF777FEC420A0
:10103C00FFF75CFE8A20FFF771FEEE20FFF76EFED5
:10104C00C520FFF753FE0E20FFF768FE2020FFF7A8
:10105C004DFE3620FFF74AFEC020FFF75FFE3A2018
:10106C00FFF744FE0520FFF759FE2A20FFF73EFE4E
:10107C000020FFF753FE0020FFF750FE0020FFF783
:10108C004DFE9F20FFF74AFE2B20FFF72FFE00207E
:10109C00FFF744FE0020FFF741FE0020FFF73EFE65
:1010AC004F20FFF73BFEE020FFF720FE0220FFF76A
:1010BC0035FE1C20FFF732FE0720FFF72FFE122013
:1010CC00FFF72CFE3720FFF729FE3220FFF726FE14
:1010DC002920FFF723FE2D20FFF720FE2920FFF704
:1010EC001DFE2520FFF71AFE2B20FFF717FE3920D7
:1010FC00FFF714FE0020FFF711FE0120FFF70EFE94
:10110C000320FFF70BFE1020FFF708FEE120FFF78E
:10111C00EDFD0320FFF702FE1D20FFF7FFFD07206A
:10112C00FFF7FCFD0620FFF7F9FD2E20FFF7F6FD7B
:10113C002C20FFF7F3FD2920FFF7F0FD2D20FFF702
:10114C00EDFD2E20FFF7EAFD2E20FFF7E7FD3720FF
:10115C00FFF7E4FD3F20FFF7E1FD0020FFF7DEFD88
:10116C000020FFF7DBFD0220FFF7D8FD1020FFF772
:10117C00D5FD1320FFF7BAFD0A2000F0D9FD292078
:10118C00FFF7B4FD642000F0D3FD0020FFF783FED1
:10119C000220FFF7D5FE10BD10B586B00C22002141
:1011AC0003A800F089FD80210E4B89025A6990201A
:1011BC000A435A615B6904240B400093009B012392
:1011CC0001A9C0050293019401F00EF990200022B0
:1011DC002100C00501F096F9034801F047FB06B069
:1011EC0010BDC046001002405801002070B51048D8
:1011FC0001F092FA64210E4801F0CEFA0024A042CC
:10120C0003D10B4801F0F2FA0400094801F0A6FAE8
:10121C002000FFF713FB0749FFF7C6F9E621890504
:10122C00FFF7C2F90449FFF7BFF9044B186070BD12
:10123C0058010020333353409A9989400400002010
:10124C00114B10B51C681149201CFFF7D7F804236B
:10125C00002814D10E49201CFFF7D0F803230028D6
:10126C000DD10C49201CFFF7C9F80223002806D128
:10127C000949201CFFF7C2F803005A1E9341074A84
:10128C001800137010BDC046040000209A997940D4
:10129C00CDCC6C4000006040CDCC4C400000002018
:1012AC0070B500F055FDFA211C4A05001368890041
:1012BC00C31A8B420FD31060FFF798FF061CFFF781
:1012CC00BFFF00F079FA1649301CFFF779F8041EBD
:1012DC0002D000F0F1FB70BD301C1249FFF770F822
:1012EC000600A04213D0FA210F4A49001368EB1AEA
:1012FC008B42F0D30D4B1560187842425041C0B26E
:10130C00187000F003FB200000F0F6FAE3E7012070
:10131C0000F0F2FA300000F0F9FADCE71C000020D3
:10132C0033333340000040401800002016000020EA
:10133C00014B18787047C0462000002010B500F013
:10134C00BBFB10BD002210B5074B11201A70FFF724
:10135C00CDFC782000F0ECFC2920FFF7C7FC022024
:10136C00FFF7EEFD10BDC0462000002030B58FB059
:10137C001C22002106A800F09FFC142200216846C4
:10138C0000F09AFC02240125102305A8099305946A
:10139C0008950B940D9400F061FD07230093002336
:1013AC002900684601940293039300F047FF0FB0A5
:1013BC0030BD000007B500F0D1FC80218020104B1F
:1013CC004905DA6940000A43DA61DB690B40019395
:1013DC00019B01F0CDFA042380200A4A40001168D9
:1013EC000B43136001F0AEFA0121080001F0D6FAAC
:1013FC00FFF7BCFF00F0BAFCFFF7A4FF07BDC04627
:10140C0000100240007000400022044B10B51A700E
:10141C0000F09EFC024B186010BDC0462900002055
:10142C002400002007B50020044B28211870044B21
:10143C00009350231A00FFF745FD07BD290000203B
:10144C00D08E000007B50222054B28211A70054BDF
:10145C000020009350231A00FFF734FD07BDC0464F
:10146C0029000020D02A000010B50020FFF713FD42
:10147C000A24200064210F4AFFF716FD20000734D0
:10148C0065210C4AE4B2FFF70FFD492CF1D1002481
:10149C002000142160434942FEF794FE5F30C1B234
:1014AC0060001430034AC0B20134FFF7FDFC142C69
:1014BC00EED110BD0842000037B50025374B0400B3
:1014CC0018703C220C2391210A200095FFF7D8FCC0
:1014DC00012C2BD1324C0A23282292211420009467
:1014EC00FFF7CEFC06232422942116200095FFF74B
:1014FC00C7FC06230322942118200094FFF7C0FC9C
:10150C000623032294211D200094FFF7B9FC062327
:10151C000322942122200094FFF7B2FC062303221D
:10152C00942127200094FFF7ABFC37BD1D4C0A23F8
:10153C00322292210F200094FFF7A2FC06232E22C8
:10154C00942111200095FFF79BFC06230322942184
:10155C0013200094FFF794FC0623032294211820F7
:10156C000094FFF78DFC0623032294211D20009488
:10157C00FFF786FC06230322942122200094FFF718
:10158C007FFC06230322942127200094FFF778FC8C
:10159C000623032294212C200094C4E72800002069
:1015AC0020FD0000FF070000F0B506000D0085B01F
:1015BC00041C1F2800D91F24E4B22B1C1F2D00D99A
:1015CC001F23DAB20392674A674F1470674A13708D
:1015DC00674B1A78012A06D001221A70FFF744FFD4
:1015EC003878FFF769FF3B78002B00D06FE0182E9E
:1015FC005FD8102E60D8082E60D8FC27FF0000237F
:10160C00082214210A2000932833FFF739FC2823E1
:10161C003C2163435B11DBB2C91A08220A20C9B210
:10162C000097FFF72DFC182D4AD8102D4BD8082DFC
:10163C004BD8FC24E4000023082214214120009301
:10164C002833FFF71DFC28233C21039A41205343E8
:10165C005B11DBB2C91A0822C9B20094FFF710FC67
:10166C000023052E01D9FC23DB0000930A2208235A
:10167C0082210520FFF704FC0023052D01D9FC2352
:10168C00DB000A228221412000930823FFF7F8FB9C
:10169C000723384C1800062278210094FFF7F0FB42
:1016AC0007230622782143200094FFF7E9FB05B0BD
:1016BC00F0BDF8273F02A2E72F4FA0E72F4F9EE780
:1016CC00F8242402B7E72C4CB5E72C4CB3E7039B6A
:1016DC00E4186510312C3ED8102D3FDC082D3FDC72
:1016EC00FC26F60000242823082214210A2000944A
:1016FC00FFF7C6FB28230822142141200094FFF792
:10170C00BFFB28231022142124200094FFF7B8FBE0
:10171C0028233C216B435B11DBB2C91A1022242015
:10172C00C9B20096FFF7ACFB12230A2278210520E0
:10173C000094FFF7A5FB12230A2278214120009484
:10174C00FFF79EFB052D00DD0B4C08231422822194
:10175C001E200094A9E7F8263602C3E7064EC1E71F
:10176C00064EBFE7220000202800002021000020A8
:10177C0029000020FFFF000020FD0000E0FF00001A
:10178C0010B500F0E5FA084A1368C31A312B0AD9D0
:10179C00064B10601B78012B05D1054B1978054BB6
:1017AC001878FFF701FF10BD24000020290000204D
:1017BC002100002022000020002373B51622009384
:1017CC000500052132200C33FFF75AFB3224200090
:1017DC000521264AFFF768FB200001340E21234A1D
:1017EC00E4B2FFF761FB462CF1D1413C1F4E2100C6
:1017FC0032003220FFF758FB210001343200452023
:10180C00E4B2FFF751FB0F2CF0D106230222072183
:10181C0046200096FFF734FB6B1EDBB2032B11D86E
:10182C000024134A5B009E5AA00034300134062376
:10183C0003220721C0B20096E4B2FFF721FBA542B8
:10184C00F2D873BD002DFCD100F082FAFA214900C8
:10185C00FEF72EFCC007F4D5F8231B0200931022D0
:10186C00062307213420FFF70BFBEAE7FFFF0000FC
:10187C00C82A000010B500220121044800F042FEE5
:10188C0001224021024800F03DFE10BD000C004832
:10189C000004004810B502001021024800F032FE8E
:1018AC0010BDC0460008004810B502004021024897
:1018BC0000F028FE10BDC04600040048012210B5FF
:1018CC0042400821014800F01DFE10BD00080048F0
:1018DC0010B5040002000421024800F013FE024B74
:1018EC001C7010BD000800482A000020014B18781D
:1018FC007047C0462A000020012210B54240042146
:10190C00014800F0FFFD10BD000C0048012210B58D
:10191C0042400821014800F0F5FD10BD000C0048C4
:10192C00F0B58BB00C22002107A800F0C5F980217E
:10193C00494B89025A6901240A435A615A6908269B
:10194C000A4080210192019A5A69C9020A435A61DC
:10195C005A6904270A4080210292029A5A690903A3
:10196C000A435A615A693D480A4080210392039AFE
:10197C005A6949030A435A615B6906940B40049304
:10198C0005A9049B059600F02FFD00223100334879
:10199C0000F0B8FD05A93148059700F025FD00229F
:1019AC0039002E4800F0AEFD1023402505A92B4828
:1019BC00059300F019FD05A92948059500F014FDC3
:1019CC00022305A92548059300F00EFD05A925481D
:1019DC00059400F009FD22002100224800F092FD40
:1019EC0005A91F48059500F0FFFC220029001C48A2
:1019FC0000F088FD05A91B48059700F0F5FC2200B6
:101A0C003900184800F07EFD05A91648059600F02F
:101A1C00EBFC22003100134800F074FD0023079406
:101A2C0005A91F340E480693059400F0DDFC102325
:101A3C0005A90B48059300F0D7FC05A909480594A6
:101A4C0000F0D2FC074805A9059500F0CDFC00F08C
:101A5C004DF80BB0F0BDC046001002400008004825
:101A6C0000040048000C004810B50120FFF712FFDD
:101A7C000120FFF719FF0A2000F05AF9FFF770FA5E
:101A8C00FFF7F8FEFFF7CEFCFA20800000F050F9CB
:101A9C000020FFF713FFFFF7A9FB0649FEF7AEFC8A
:101AAC00002805D00120FFF727FF0020FFF72EFFAD
:101ABC0010BDC0460000404010B50120FFF7FEFEEF
:101ACC000A2000F035F9FFF7BDFCFA20800000F089
:101ADC002FF90120FFF7DEFE0120FFF7E5FE0A20BB
:101AEC0000F026F9FFF766FC10BD0000002370B56E
:101AFC001D002D4988B0CD5401338A2BFBD10C220B
:101B0C00002105A800F0D8F88022284CD202636985
:101B1C000126134363616369254813400293029BBA
:101B2C00032303A90493039600F05EFC02232048D0
:101B3C0003A9039300F058FC0C22002103A800F029
:101B4C00BBF88022A36992001343A361A369194CCB
:101B5C0013400193019B184B200023606660A56025
:101B6C00E56025616561A561E56125626562A56237
:101B7C00E5622563656300F0ABFE002801D0FFF73A
:101B8C00A5F880235B01002504930223200003A900
:101B9C000395059300F03AFEA84201D0FFF796F8A2
:101BAC00064B1D8008B070BD740000200010024070
:101BBC000004004830000020002401402C000020CC
:101BCC000022024B1A80024B1A7070472C00002026
:101BDC00F500002070B52C4B2C491B78002B51D0F4
:101BEC0000250C0028002B00294E2288921912B2D5
:101BFC00D61792197240161C92B29A4200D21E1C31
:101C0C000234E28FB3B2224E921912B2D617921945
:101C1C007240161C92B2824200D2061C0135B0B240
:101C2C00202DE1D10A00863213800A0088321680FA
:101C3C000022092B0AD91F325343DB12182B04DD67
:101C4C005B080C33934200D91300DAB20B008233D9
:101C5C001A70002309280AD91F246043C312182BB9
:101C6C0004DD5B080C33A34200D92300DBB208006F
:101C7C008330D21803700B00521084331A70002377
:101C8C0081310B7070BDC046F5000020740000203F
:101C9C0000F8FFFF014B18787047C046F600002093
:101CAC00014B18787047C046F7000020014B18789C
:101CBC007047C046F800002003008218934200D100
:101CCC00704719700133F9E7FEE770477047000061
:101CDC0070B50500FA200D4B80001968FEF7E8F985
:101CEC000B4C01002068FEF7E3F900F0A3F80400A8
:101CFC000120002C09D1032D07D80238220029001D
:101D0C0000F05AF82000034B1D6070BD0800002045
:101D1C00100000200C00002010B5032000F02EF85D
:101D2C000020FFF7D5FFFFF7D1FF002010BD00000A
:101D3C00054A1168431C02D0044B1B68C018136879
:101D4C005B1A8342FBD3704700010020080000207F
:101D5C00014B18687047C046000100200221024A5E
:101D6C0013688B431360704710E000E00223024AB3
:101D7C0011680B431360704710E000E0C31E10B5F0
:101D8C000400042B03D90C210748FFF79DFFE02129
:101D9C00064AC9002402D3680C4005490B401C4379
:101DAC00044B2343D36010BDD0F2000000ED00E0E3
:101DBC00FFF800000000FA0570B504000D001600D5
:101DCC000F2A03D917211748FFF77EFF0F2D03D9D0
:101DDC0018211448FFF778FF0722134BDB681B0A06
:101DEC001340591FD31A022901D9022300210122C1
:101DFC005242100098408A4085438D4096433543AB
:101E0C00AD01EDB2002C05DBA408084BC034A400D6
:101E1C00E55070BD0F231C40054BA400E418656011
:101E2C00F7E7C046D0F2000000ED00E000E100E072
:101E3C0008ED00E08022431E52040120934208D298
:101E4C00C021044A00205360034B9964072390601F
:101E5C001360704710E000E000ED00E0F0B5040006
:101E6C0085B0002853D003680F2B03D98021B148CB
:101E7C00FFF72AFF2368DB0719D423689B0700D5DB
:101E8C006FE023681B0700D5B8E023685B0700D51B
:101E9C00E2E0A369022B04D9B521A6484900FFF75B
:101EAC0013FFA369002B00D052E1002027E06368E8
:101EBC00022B03D986219F48FFF706FF0C229E4D6B
:101ECC006B681340042B1CD06B681340082B00D19B
:101EDC006B686368012B1CD180232A685B02134357
:101EEC002B60FFF735FF80260700B6022B683342C4
:101EFC00C3D1FFF72DFFC01B6428F7D9032005B011
:101F0C00F0BD2B689B03B8D56368002BB5D10120BD
:101F1C00F5E7002B15D12B68884A802613402B60DF
:101F2C002B68874AB60213402B60FFF711FF07009E
:101F3C002B683342A1D0FFF70BFFC01B6428F7D9E5
:101F4C00DCE7022B05D180232A68DB0213432B60CC
:101F5C00C2E72B68794A13402B602B68784A1340F0
:101F6C00BEE7E368012B03D9B9217248FFF7ACFE39
:101F7C0023691F2B03D9BA216E48FFF7A5FE0C224B
:101F8C006D4D6B68134206D06B681340082B10D153
:101F9C006B68DB030DD42B689B0702D5E368012B20
:101FAC00B5D1F8212A6823698A43DB0013432B60DF
:101FBC0067E7E2680123002A0FD02A680226134340
:101FCC002B60FFF7C5FE07002B683342E9D1FFF702
:101FDC00BFFEC01B6428F7D990E72A6802269A43F3
:101FEC002A60FFF7B5FE07002B68334200D148E7A3
:101FFC00FFF7AEFEC01B6428F6D97FE76369012B9F
:10200C0003D9FA214B48FFF75FFE626901234A4D61
:10201C00002A10D06A6A022613436B62FFF798FEFF
:10202C0007006B6A334200D02FE7FFF791FEC01B0D
:10203C006428F6D962E76A6A02269A436A62FFF755
:10204C0087FE07006B6A334200D11EE7FFF780FE64
:10205C00C01B6428F6D951E7A368022B04D993213D
:10206C0034484900FFF730FE80220021324D5205E2
:10207C00EB690091134208D1EB691343EB61EB69F7
:10208C0013400393039B0123009380272D4E7F0065
:10209C0033683B4215D0A368012B22D12A6A134323
:1020AC002B62FFF755FE022706002B6A3B4239D004
:1020BC00009B012B00D0ECE6EB69234A1340EB614B
:1020CC00E7E633683B433360FFF742FE0190336829
:1020DC003B42E0D1FFF73CFE019BC01A6428F6D9C5
:1020EC000CE7002B15D101222B6A022793432B629C
:1020FC002B6A033293432B62FFF72AFE06002B6AEE
:10210C003B42D5D0FFF724FE104B801B9842F6D9EA
:10211C00F4E6022BC5D12A6A013B13432B622A6ACF
:10212C000423BCE7FFF714FE084B801B9842BCD974
:10213C00E4E6C04606F3000000100240FFFFFEFF7D
:10214C00FFFFFBFF00700040FFFFFFEF8813000054
:10215C000C21364D6A680A40082A52D0344E022BA4
:10216C003DD1E369012B04D974213248FF31FFF7CB
:10217C00ABFD236A0E2B04D9BA212E484900FFF778
:10218C00A3FD2B6833402B60FFF7E2FD8026070090
:10219C00B6042B6833421CD16B68274A1340E269A2
:1021AC001343226A8024920413436B6080232A68B1
:1021BC005B0413432B60FFF7CBFD0600A4042B68D4
:1021CC00234200D071E6FFF7C3FD801B6428F6D9CB
:1021DC0094E6FFF7BDFDC01B6428DAD98EE62B68A8
:1021EC00802433402B60FFF7B3FD0600A4042B685A
:1021FC00234200D159E6FFF7ABFD801B6428F6D9CA
:10220C007CE6012B00D182E680236868E2695B02E0
:10221C000340934200D07AE6F0239B031840236AD4
:10222C00C01A431E9841C0B269E6C0460010024075
:10223C00FFFFFFFE06F30000FFFFC2FFF7B504002F
:10224C000E00002801D10120FEBD0368072B04D924
:10225C00CC215A48FF31FFF737FD012E04D9E62176
:10226C0056484900FFF730FD0722554D2B681340A7
:10227C00B3421DD323689A0723D42368DB074AD4BF
:10228C0007222B681340B34275D823684D4D5B076A
:10229C007BD46B684C494D4A1B061B0FD25C0B68F8
:1022AC00D3400B604A4B1868FFF712FD0020CBE7B8
:1022BC002B68934333432B602B681340B342C2D13A
:1022CC00D8E7404F5B0704D5E0237A68DB00134363
:1022DC007B60A36880221900914315D0202219003D
:1022EC009143902910D0402219009143A0290BD082
:1022FC00102219009143C02906D0F02B04D0EC21F8
:10230C002E48FF31FFF7E0FCF0227B689343A26874
:10231C0013437B60B1E76368022B04D9F92127488A
:10232C004900FFF7D1FC274F62683B68012A1AD19C
:10233C009B0300D487E703217B688B4313437B60AB
:10234C00FFF706FD01900C237A681A4063689B0026
:10235C009A4295D0FFF7FCFC019BC01A1D4B98428A
:10236C00F1D9032070E7022A02D19B01E3D46AE77A
:10237C009B07E0D467E72B68934333432B602B68B0
:10238C001340B34200D05EE77FE7E368124A134282
:10239C000DD0A021114AC9001A408A4207D0C02290
:1023AC00D200934203D005480D49FFF78DFC6B68B2
:1023BC000C4A1340E26813436B606AE706F30000B3
:1023CC0000200240001002401000002006F4000023
:1023DC000C00002088130000FFFBFFFFFFFDFFFF38
:1023EC002E020000FFF8FFFF9023F7B5DB05040079
:1023FC000D00984209D0384B984206D0374B984282
:10240C0003D00A213648FFF75FFC2B689AB2002AEA
:10241C0003D080225202934203D30B213048FFF7A2
:10242C0053FC6B68032B06D9113B012B03D90C21F0
:10243C002B48FFF749FCAB68022B03D90D21284828
:10244C00FFF742FC0322002394462A681100D9406E
:10245C0000D1F7BD0121994001910A4230D0674665
:10246C005E00B74060462268BA4311006A681040AB
:10247C00B04008432060501E012823D860680199A1
:10248C0088436060E968A068B140B8430143A1602B
:10249C00A968E068B140B8430143E16010218A4368
:1024AC00022A0DD107201840800001398140DA083A
:1024BC009200A218166A8E43296981403143116239
:1024CC000133C2E7100011380128DBD8606801998C
:1024DC0001436160D6E7C04600040048000800488C
:1024EC0039F3000070B504000D1E03D178210448A7
:1024FC00FFF7EAFB20692840431E9841C0B270BD2B
:10250C0039F3000070B505000C001600002903D14A
:10251C0088210748FFF7D8FB012E05D989210448EB
:10252C00FFF7D2FBAC6170BD002EFBD1AC62FAE7B9
:10253C0039F30000F0B587B01E00040015000768E1
:10254C000291FFF705FC029B03900120002B3FD06A
:10255C00002D3DD02300503301931B780018012B24
:10256C0036D00123019A13700233A3640023A5868D
:10257C00E364E5860500029B2363E38E002B0DD1FB
:10258C008025BB68180028402B4223D12368059076
:10259C00DA6805929B680593059B14E0BB682B4297
:1025AC0008D0236B5A1C22631B783B73E38E013BD0
:1025BC00E386E2E7731CE0D0FFF7CAFB039BC01A6B
:1025CC00B042DAD303200123A3640023019A1370D1
:1025DC0007B0F0BD731CD4D0FFF7BAFB039BC01A35
:1025EC00B042CED3EEE7704770B5444B056804009B
:1025FC009D4203D03F214248FFF766FB04226368EB
:10260C00934303D040213E48FFF75EFBA3683D4A4D
:10261C00134207D080221202934203D04121384842
:10262C00FFF752FBE268384B1A4203D04221344880
:10263C00FFF74AFB02222369934303D0432130481E
:10264C00FFF742FB6369012B03D944212C48FFF7A8
:10265C003BFBA3692D4A134207D08022D20293423E
:10266C0003D045212648FFF72FFBE369002B11D03F
:10267C00182B08D8072B04D846212148FFF724FB38
:10268C0008E0234A03E0203B182BF5D8214ADA4016
:10269C00D207F1D58022236A934303D047211848EF
:1026AC00FFF712FB2000FFF79EFF40222B68A1686A
:1026BC0093432B606368A2690B43E1680B43216968
:1026CC000B4361690B43E16913430B43216A0B43D1
:1026DC00A16A0B432B6080239B009A4204D12A6889
:1026EC000133FF3313432B6040232A68002013432C
:1026FC002B600123A364E06470BDC0460030014030
:10270C006DF30000FFFBFFFFFFF7FFFFFFFDFFFF77
:10271C00000101010101010170B50E4B04680500B7
:10272C009C4203D05F210C48FFF7CEFA40352B7842
:10273C000220012B0CD00123A2681A4202D1A268FC
:10274C001343A36004230020A2681343A3602870E2
:10275C0070BDC04600240140A0F3000070B50C4BC6
:10276C00056804009D4203D079210A48FFF7ACFAB2
:10277C00403423780220012B09D01023AA681A4375
:10278C00AA60AA68100018401A42FAD1207070BDD5
:10279C0000240140A0F30000F7B504000D0006680A
:1027AC00FFF7D6FA0F4B226801909A4203D093217F
:1027BC000D48FFF789FA042733683B4202D000200A
:1027CC00376006E06B1CF7D0002D03D107230320E4
:1027DC00A363FEBDFFF7BCFA019BC01AA842EBD95C
:1027EC00F4E7C04600240140A0F3000010B5054BEF
:1027FC0004689C4203D0AF210348FFF765FA206CB4
:10280C0010BDC04600240140A0F3000070B5154B6C
:10281C00046806000D009C4203D0BA211248FFF751
:10282C0053FA2B68112B03D9BB210F48FFF74CFA35
:10283C00AB68072B03D9BC210B48FFF745FA403690
:10284C0033780220012B0CD001232868A16A834025
:10285C0000209943A162A16A0B43A362AB68636138
:10286C00307070BD00240140A0F3000070B504006E
:10287C000568FFF76DFA134B226806009A4203D0E5
:10288C00D7211148FFF720FA403423780220012B7E
:10289C0017D001222270AB689343AB608023AA68E7
:1028AC001B061343AB60AB68002B02DB00202070CF
:1028BC0007E0FFF74DFA801B0A28F4D90023032008
:1028CC00237070BD00240140A0F30000704700008D
:1028DC0070B504000120002C2FD0184B22689A42AE
:1028EC0003D037211648FFF7EFF920002568FFF7D2
:1028FC00EDFF0223A36300230122E363AB68E168CD
:10290C009343AB60A3680B4321690B43216A0B43D0
:10291C00616A0B43E16A0B43A16A0B43216B0B43C6
:10292C0061690B43616B0B43EB60AB681343AB60AA
:10293C002B681342FCD00020A26370BD0024014020
:10294C00A0F30000421E074BFF3A10B504001A42D8
:10295C0003D01A210448FFF7B7F9044B58682043F9
:10296C00586010BDFFFEFFFFD3F300000070004065
:10297C00421E074BFF3A10B504001A4203D0232124
:10298C000448FFF7A1F9044A5368A343536010BDF0
:10299C00FFFEFFFFD3F300000070004070B5050090
:1029AC000C00012803D944211248FFF78DF9631E4E
:1029BC00012B03D945210F48FFF786F902210E4B55
:1029CC001A688A431A6001221868904328431860D9
:1029DC000A4B033219690A431A61012C05D130BF25
:1029EC0004211A698A431A6170BD40BF20BF20BF01
:1029FC00F6E7C046D3F300000070004000ED00E0A5
:102A0C000121114B11481A680A431A605A68024096
:102A1C005A601A680E4802401A601A680D48024043
:102A2C001A605A680C4802400F205A60DA6A8243D6
:102A3C00DA621A6B094802401A635A6B8A435A636A
:102A4C0000229A607047C046001002400CB8FFF894
:102A5C00FFFFF6FEFFFFFBFFFFFFC0FFACFEFFFF1B
:102A6C000D4885460D480E490E4A002302E0D45805
:102A7C00C4500433C4188C42F9D30B4A0B4C0023BA
:102A8C0001E013600432A242FBD3FFF7B9FFFFF75A
:102A9C001CF9FDF733FFFEE70020002000000020AA
:102AAC001400002018F4000014000020DC010020A9
:042ABC00FEE7000031
:102AC0000000FA005802E70320FDE0FFE007E007FE
:102AD00000000000000000000000000000000000F6
:102AE00000000000000000000000000000000000E6
:102AF00000000000000000000000000000000000D6
:102B000000000000000000000000000000000000C5
:10F2D000447269766572732F574233324C30303343
:10F2E0005F48414C5F4472697665722F5372632F99
:10F2F000776233326C3030335F68616C5F636F729A
:10F300007465782E6300447269766572732F574274
:10F3100033324C3030335F48414C5F44726976651C
:10F32000722F5372632F776233326C3030335F68E1
:10F33000616C5F7263632E630044726976657273F9
:10F340002F574233324C3030335F48414C5F447268
:10F35000697665722F5372632F776233326C303067
:10F36000335F68616C5F6770696F2E630044726918
:10F37000766572732F574233324C3030335F4841D9
:10F380004C5F4472697665722F5372632F776233D4
:10F39000326C3030335F68616C5F7370692E63006C
:10F3A000447269766572732F574233324C30303372
:10F3B0005F48414C5F4472697665722F5372632FC8
:10F3C000776233326C3030335F68616C5F616463E5
:10F3D0002E6300447269766572732F574233324C44
:10F3E0003030335F48414C5F4472697665722F5309
:10F3F00072632F776233326C3030335F68616C5FD9
:10F400007077722E6300000000000000000001020F
:08F410000304060708090000CF
:10F4180003000000CDCC6C40010000000400000097
:04F428000048E801AF
:0400000300002A6D62
:00000001FF
