:020000040800F2
:1000000000200020452D0008952D0008952D0008A2
:1000100000000000000000000000000000000000E0
:10002000000000000000000000000000952D000806
:100030000000000000000000952D0008952D00082C
:10004000952D0008952D0008952D0008952D000888
:10005000952D0008952D0008952D0008952D000878
:1000600000000000952D0008952D0008952D000832
:10007000952D0008952D0008952D0008952D000858
:10008000952D00080000000000000000952D0008DC
:1000900000000000952D0008952D0008952D000802
:1000A00000000000952D000800000000952D0008BC
:0C00B000952D000800000000000000007A
:1000BC00002243088B4274D303098B425FD3030A9B
:1000CC008B4244D3030B8B4228D3030C8B420DD3AE
:1000DC00FF22090212BA030C8B4202D3121209023C
:1000EC0065D0030B8B4219D300E0090AC30B8B427A
:1000FC0001D3CB03C01A5241830B8B4201D38B0328
:10010C00C01A5241430B8B4201D34B03C01A5241CC
:10011C00030B8B4201D30B03C01A5241C30A8B420F
:10012C0001D3CB02C01A5241830A8B4201D38B02FA
:10013C00C01A5241430A8B4201D34B02C01A52419E
:10014C00030A8B4201D30B02C01A5241CDD2C30910
:10015C008B4201D3CB01C01A524183098B4201D38C
:10016C008B01C01A524143098B4201D34B01C01A77
:10017C00524103098B4201D30B01C01A5241C308EF
:10018C008B4201D3CB00C01A524183088B4201D35E
:10019C008B00C01A524143088B4201D34B00C01A4A
:1001AC005241411A00D20146524110467047FFE7B6
:1001BC0001B5002000F0F0F802BDC0460029F7D0D0
:1001CC0076E7704703460B437FD4002243088B42EB
:1001DC0074D303098B425FD3030A8B4244D3030BC2
:1001EC008B4228D3030C8B420DD3FF22090212BA87
:1001FC00030C8B4202D31212090265D0030B8B4203
:10020C0019D300E0090AC30B8B4201D3CB03C01AEC
:10021C005241830B8B4201D38B03C01A5241430BC7
:10022C008B4201D34B03C01A5241030B8B4201D3B7
:10023C000B03C01A5241C30A8B4201D3CB02C01A22
:10024C005241830A8B4201D38B02C01A5241430A9A
:10025C008B4201D34B02C01A5241030A8B4201D389
:10026C000B02C01A5241CDD2C3098B4201D3CB0130
:10027C00C01A524183098B4201D38B01C01A5241DF
:10028C0043098B4201D34B01C01A524103098B42E3
:10029C0001D30B01C01A5241C3088B4201D3CB00CE
:1002AC00C01A524183088B4201D38B00C01A5241B1
:1002BC0043088B4201D34B00C01A5241411A00D261
:1002CC0001465241104670475DE0CA0F00D04942CA
:1002DC00031000D34042534000229C4603098B423A
:1002EC002DD3030A8B4212D3FC22890112BA030AC2
:1002FC008B420CD3890192118B4208D38901921144
:10030C008B4204D389013AD0921100E08909C309C8
:10031C008B4201D3CB01C01A524183098B4201D3CA
:10032C008B01C01A524143098B4201D34B01C01AB5
:10033C00524103098B4201D30B01C01A5241C3082D
:10034C008B4201D3CB00C01A524183088B4201D39C
:10035C008B00C01A5241D9D243088B4201D34B00B7
:10036C00C01A5241411A00D20146634652415B10F9
:10037C00104601D34042002B00D5494270476346DA
:10038C005B1000D3404201B5002000F005F802BD1F
:10039C000029F8D016E770477047C046844608001D
:1003AC006146FFE71FB500F0DBFA002801D40021FD
:1003BC00C8421FBD10B500F057FA4042013010BDC5
:1003CC0010B500F0CDFA002801DB002010BD012093
:1003DC0010BDC04610B500F0C3FA002801DD0020A6
:1003EC0010BD012010BDC04610B500F069FA002800
:1003FC0001DC002010BD012010BDC04610B500F07E
:10040C005FFA002801DA002010BD012010BDC046A3
:10041C00F0B5C64647027B0A9C464B025A0A9046E8
:10042C0045004A002D0E120ECE0F00B59909C40FCF
:10043C00BF09AB1AB4424BD0002B39DD002A00D1D6
:10044C0077E0FF2D00D1C1E08022D20411431B2B99
:10045C0000DCFFE0013F7A0100D4B1E001277F42CC
:10046C00BF01BA091600100000F056FC3300053825
:10047C008340854200DCD5E0B94F2D1A1F405A0746
:10048C0000D178E10F221340042B00D173E1043723
:10049C007B0100D46FE1681CFE2D00D07DE0FF20B5
:1004AC000022C0051043E407204380BCB846F0BDD1
:1004BC00002B46D0531B002D73D1002F00D139E1F6
:1004CC00012B00D17EE1FF2B00D156E1013B6EE008
:1004DC00002B00DC85E0002A51D1002972D05A1E75
:1004EC00012B00D12CE1FF2B70D01B2A4CDC13000C
:1004FC0008002022D840D31A99400B005A1E934171
:10050C000343FF188023DB041F4200D12CE101358B
:10051C00FF2DC4D0934A79081140012217400F4394
:10052C007A0700D08DE01F42B5D1FB089C462B000A
:10053C002EE0002946D0012B67D0FF2B46D0013B83
:10054C0085E7FE206A1C104200D099E0002D00D0F7
:10055C00E6E0002F00D12FE1002919D080257A1A6E
:10056C00ED042A4200D15AE13400CF1B00D18FE0B8
:10057C0001202F4212D1FB089C46002308E0FF2DDE
:10058C0024D01B2B00DC9AE00537FB089C462B0083
:10059C0062465202520AD8B283E7C0B2BA01520A7A
:1005AC007FE7FF2A00D1E8E08020C00407431B2B23
:1005BC0000DC88E04F1E34001500790100D54DE7B2
:1005CC002B000437FA089446FF2BE1D16346002B2D
:1005DC0000D145E18022D2031A435202FF20520A75
:1005EC005FE7002B57D0531B002D78D1002F00D183
:1005FC00A1E05D1E012B00D1A2E0FF2B00D1BDE0DC
:10060C001B2D00DDC0E02B0070E0791A4A0100D4EC
:10061C00B6E089018D09280000F07EFB2B0005381F
:10062C00834001252022401B0130121A1F009340E9
:10063C00C7405A1E93411F432AD000257B0700D187
:10064C0008E10F233B40042B00D020E77B0100D5B1
:10065C0021E76AE708002022D840D31A99400B0002
:10066C005A1E93410343FF1A7B0100D5F8E67B0722
:10067C0000D15AE70F233B40042B00D007E754E787
:10068C007B1A1A005B0158D4002A00D0EAE6002439
:10069C000020002205E7FE226B1C1A4231D1002DEE
:1006AC0077D1002F00D1A6E0002900D1BCE07A1848
:1006BC00530100D4BAE092010120520AF1E68022E3
:1006CC00D204114314E738002024D840E31A9F4089
:1006DC007B1E9F41074334001500CF1BC4E7FF2A44
:1006EC004CD01B2B50DC8020C00407433800202545
:1006FC00D840EB1A9F407B1E9F41074315007F1883
:10070C0000E7FF2B00D1CAE67F187F087A0700D1DB
:10071C0090E00F223A40042A00D18BE0043751E7D5
:10072C00002F5DD1002900D086E080220024FF201C
:10073C00D203B6E634000F0044E73400CA1B91E63E
:10074C007B185A0100D47EE0064F5B081F405A0705
:10075C0058D00F221340042B54D00223043731E716
:10076C00FFFFFFFBFFFFFF7D7B0704D00F233B4008
:10077C00042B00D08BE62B0024E73400C44625E77D
:10078C00CB089C46012303E70531CB089C4613009C
:10079C00FEE6002FF2D0002936D08023DB039C45E7
:1007AC0002D3984500D2C44680226346D2031A4332
:1007BC005202FF20520A74E6002900D167E7340088
:1007CC00C446E5E6CB1B5A0124D59B019C092000AD
:1007DC0000F0A2FA2300053883403400013521E7EC
:1007EC00002911D08023DB039C45DDD39845DBD257
:1007FC003400C446D8E7002900D149E7CB089C4611
:10080C000023C5E6022590E680226346D203FF2032
:10081C001A4346E6DB089C4634000123B8E6002A5E
:10082C0015D1002400203CE60023B1E6D3089C46F9
:10083C000023ADE61D0078E680224346D203340047
:10084C00FF201A432DE6DB089C460123A0E6D208C4
:10085C0094469DE601207B0100D59EE63900CDE74C
:10086C00FF201A001DE6C04630B543024200C50FFA
:10087C0048025B0A440A48009C46120E000EC90F3F
:10088C00FF2A11D0FF280CD0012382420AD1A445A3
:10089C0008D18D4211D0002A04D163465A1E9341CF
:1008AC0000E00123180030BD0123FF28FAD1624675
:1008BC002243F7D12B004B40F4E70023F2E7C0466C
:1008CC0043025B0A42009C46C30F480210B5440A1F
:1008DC004800120E000EC90FFF2A1AD0FF280BD0A9
:1008EC00002A24D1624600281ED1002C2ED0002ACA
:1008FC0032D1480001380BE0002C2AD1002A02D159
:10090C006246002AF5D08B421DD001205B42184371
:10091C0010BD6246002A1CD1FF28F6D1002C18D13C
:10092C0020008B42F1D1F3E7002AE2D0EBE700285C
:10093C00EBD08B42E9D18242E7DC04DBA445E4D85E
:10094C000020A445E4D258000138E1E7002ADFD0AA
:10095C00DBE702204042DBE78B42D6D1EEE7C04614
:10096C0043025B0A42009C46C30F480210B5440A7E
:10097C004800120E000EC90FFF2A15D0FF280BD00D
:10098C00002A1AD1624600281DD1002C22D0002A40
:10099C0032D1480001380FE0002C0CD1002A14D1C0
:1009AC006246002AF5D010E06246002A03D1FF28E7
:1009BC0005D1002C1CD0022010BD00280DD1012027
:1009CC005B421843F8E7002AE3D08B42F7D158007A
:1009DC000138F1E7002AEFD0F1E78B42EFD18242E8
:1009EC00EDDCF4DBA445EAD80020A445E4D2EEE724
:1009FC0020008B42E3D1DFE78B42E0D1F2E7C04627
:100A0C00F0B54646D6464F464402C0B5C30F460025
:100A1C0098460D1C640A360E00D1CBE0FF2E6ED02A
:100A2C008023E400DB041C43002399469A467F3E56
:100A3C006F026B007F0A1B0EED0F002B6DD0FF2B8E
:100A4C0000D1A6E07F3BF6184B460A2B00DD82E076
:100A5C008023FF00DB041F4343466B4098464B4604
:100A6C000022022B0FDD494601238B40A621C90031
:100A7C000B4200D06FE0902189000B4200D0D3E0F4
:100A8C008821194264D1200C2404240C21003B0C35
:100A9C003F043F0C79435C4347435843E4190B0C28
:100AAC001B199F4202D980225202801809041A0491
:100ABC00090C52189401611E8C411B0C920E1B18D0
:100ACC0014439B011C431B0100D5CDE030007F304B
:100ADC00002800DCAEE063070BD00F23320023406C
:100AEC00042B06D00434230103D580321000684B4C
:100AFC001C40FE2866DCA3015B0AC0B21EE0002C81
:100B0C0000D08BE008239946063B6F029A466B0097
:100B1C007F0A1B0EED0F002B91D1002F61D14A469D
:100B2C0001231A4391460A2A15DC43466B4098462A
:100B3C004B460122022B96DC00200023C0051843F3
:100B4C004346DD072843E0BCBA46B146A846F0BD93
:100B5C00A8463C0092465346022B33D0032B11D0AF
:100B6C00012BE9D030008030721C002863DD630754
:100B7C00B9D00F232340042BB4D1B4E70F2A78D07B
:100B8C00A8463C008023DB0323435B02FF205B0A67
:100B9C00D4E7FF36002F2FD102234A4613430A2BEA
:100BAC00D9DC42466A4090464A46002A0AD0994609
:100BBC00022258E7002C08D104239946033B002657
:100BCC009A4635E7FF200023B8E7200000F0A4F890
:100BDC007626431F9C400023764299469A46361A45
:100BEC0026E7380000F098F84B46361A763E0A2B6A
:100BFC00B1DC053887402FE703234A461A4313001C
:100C0C000A2ABBDC42466A40904601229A4088215F
:100C1C0013000322194200D135E799E70C239946BA
:100C2C00093BFF269A4603E7002398468023FF20C2
:100C3C00DB0383E7320003001A3300DA7CE79E32D1
:100C4C000123210094401B1AD940621E94410C438D
:100C5C00630704D00F232340042B00D0043463011A
:100C6C0011D50120002369E7012362081C401443BD
:100C7C0078E78023DB031C4284D01F4282D1A84634
:100C8C00FF203B435AE7A30100205B0A56E7C0460E
:100C9C00FFFFFFF710B504000020002C0ED0200041
:100CAC0000F03AF803009E20C01A072B09DD082B30
:100CBC002CD0083B9C406402640AC0B2C00520439F
:100CCC0010BD042B16DD052B01D05A1F9440114A80
:100CDC00224061070AD00F212140042906D004329A
:100CEC00510103D59F200B49C01A0A409201540AA6
:100CFC00C0B2E3E71A0021001B3291400A00511EDA
:100D0C008A410521C91ACC401443E0E764029620BD
:100D1C00640AD3E7FFFFFFFB1C2101231B0498424D
:100D2C0001D3000C10391B0A984201D3000A083970
:100D3C001B09984201D30009043902A2105C401827
:100D4C007047C046040302020101010100000000CB
:100D5C0000000000F0B5A5B000F046FF1C220021F9
:100D6C0010A800F011FF1422002108A800F00CFFBD
:100D7C000227012610230FA8002413930F97129615
:100D8C001597179700F0D2FF0723310008A8089396
:100D9C0009970A940B9401F0B9F90C22210011A8BF
:100DAC0000F0F2FE8022994D92026B699848134331
:100DBC006B616B690FA9134080220293029B6B69D4
:100DCC00D20213436B616B69134080220393039B24
:100DDC006B69120313436B616B6910961340049398
:100DEC00049B03230F9301F067FA03230422884822
:100DFC000FA912930F921096119401F05DFA9020A6
:100E0C000FA9C0050F97109711941294139701F026
:100E1C0053FA802080010F900FA97E4810941196F0
:100E2C0001F04AFA32000721794801F0D3FA0C227A
:100E3C0021000AA800F0A8FE542221000FA800F0FF
:100E4C00A3FE8022AB6952011343AB61AB699020C6
:100E5C0013400193019BA02308A90893C0059D3B57
:100E6C000B93099701F028FA04216B4B10910F9307
:100E7C000823FD31FF310FA816931591119412948C
:100E8C001394149417941894199401F015FB0C22D4
:100E9C00210005A800F078FE0C2221000AA800F021
:100EAC0073FE8021AB6989000B43AB61AB69902069
:100EBC000B400093009B032308A9C00509930896D7
:100ECC0001F0FAF9554B0FA80F9310971194129447
:100EDC0013941494159416941794189419941A94B2
:100EEC001B941C9401F05CFC80220723520105A981
:100EFC000FA807930692059401F0F0FB1C22210029
:100F0C0008A800F041FEEB690FA83343EB61EB69D5
:100F1C00119433400593059B8023DB050F931F230E
:100F2C0010933F4B139412938023159301F012FEF0
:100F3C00602308939533FF33042208A90FA8099363
:100F4C000A940C9401F0AAFC04210FA801F0A4FD52
:100F5C0000F0FAFD00F004FC00F0CCFA00F0F5FD16
:100F6C0000F02EFC200000F053FC00F045FB2D4B54
:100F7C001A78002A0DD000221A7000F0D1FDC4118D
:100F8C0000F0D8FDC111C9B2E0B200F0B9FC00F01C
:100F9C0049FD80211F48890101F00CFA00282ED14F
:100FAC00323000F02DFE80211A48890101F002FA3E
:100FBC00002824D1040080211648890101F0FAF997
:100FCC00002813D0184B013C9C4218D8174C2078A1
:100FDC0043425841C0B2207000F01AFC207801380E
:100FEC0043425841C0B200F097FD08E00A2000F0DF
:100FFC0007FE0F4B0A349C42DDD100F04BFB00F096
:10100C0043FB0128B1D100F081FBAEE70010024098
:10101C000004004800080048003001400024014052
:10102C00E703000019000020B60B00001800002098
:10103C00C20B000007B56B46D91D012308700122B5
:10104C0002485B4201F0DEF907BDC04634000020C7
:10105C0010B5040000220221084801F0BBF900225F
:10106C000121064801F0B6F92000FFF7E3FF012249
:10107C000248110001F0AEF910BDC0460004004852
:10108C0010B5040001220221084801F0A3F9002246
:10109C000121064801F09EF92000FFF7CBFF012249
:1010AC000248110001F096F910BDC046000400483A
:1010BC0010B5040001220221094801F08BF900222D
:1010CC000121074801F086F9200AFFF7B3FFE0B2CF
:1010DC00FFF7B0FF01220248110001F07BF910BDAF
:1010EC000004004810B5012204210B4801F072F9EC
:1010FC000A2000F085FD00220421074801F06AF95E
:10110C000A2000F07DFD01220421034801F062F960
:10111C00782000F075FD10BD00040048F8B50700FC
:10112C0016000D001C002A20FFF792FF0020FFF78D
:10113C00A7FF3800FFF7A4FF0020FFF7A1FF300046
:10114C00FFF79EFF2B20FFF783FF0020FFF798FF90
:10115C002800FFF795FF0020FFF792FF2000FFF714
:10116C008FFF2C20FFF774FFF8BD000070B51C003A
:10117C0004AB1E8883181500502B02DD50252D1A48
:10118C00EDB20B19A02B03DD60246442641AE4B2A7
:10119C004B1E421EE318AA18DBB2D2B2FFF7BEFFF9
:1011AC00012202210C4801F015F9002201210A4804
:1011BC006C4301F00FF90025A54205D10122064828
:1011CC00110001F007F970BD300AFFF733FFF0B2E0
:1011DC00FFF730FF0135EFE70004004813B504AC0E
:1011EC0024884F2804D89F2902D80094FFF7BEFF0B
:1011FC0013BD07B500210090A02350220800FFF773
:10120C00B5FF07BD10B514004F2808D89F2906D884
:10121C0002000B00FFF782FF2000FFF749FF10BD13
:10122C0070B515001C004F2829D89F2927D8831882
:10123C00502B02DD50252D1AEDB20B19A02B03DD1E
:10124C0060246442641AE4B24B1E421EE318AA18CE
:10125C00DBB2D2B2FFF762FF012202210E4801F08D
:10126C00B9F8002201210C486C4301F0B3F80025B9
:10127C00AC4205D101220848110001F0ABF870BD59
:10128C00049A6B00D65A0135300AFFF7D3FEF0B240
:10129C00FFF7D0FEECE7C04600040048032806D850
:1012AC00044B4000C35A044A126893637047962358
:1012BC009B00F8E7982D0008CC00002010B5FFF734
:1012CC0011FF0120FFF7C4FE962000F099FC1120BD
:1012DC00FFF7BEFEFA20400000F092FCB120FFF7B1
:1012EC00B7FE0120FFF7CCFE2C20FFF7C9FE2D2006
:1012FC00FFF7C6FEB220FFF7ABFE0120FFF7C0FEE2
:10130C002C20FFF7BDFE2D20FFF7BAFEB320FFF710
:10131C009FFE0120FFF7B4FE2C20FFF7B1FE2D201D
:10132C00FFF7AEFE0120FFF7ABFE2C20FFF7A8FE67
:10133C002D20FFF7A5FEB420FFF78AFE0720FFF74C
:10134C009FFEC020FFF784FEA220FFF799FE02202B
:10135C00FFF796FE8420FFF793FEC120FFF778FE7F
:10136C00C520FFF78DFEC220FFF772FE0A20FFF7A3
:10137C0087FE0020FFF784FEC320FFF769FE8A205A
:10138C00FFF77EFE2A20FFF77BFEC420FFF760FEEE
:10139C008A20FFF775FEEE20FFF772FEC520FFF7DF
:1013AC0057FE0E20FFF76CFE2020FFF751FE362073
:1013BC00FFF74EFEC020FFF763FE3A20FFF748FE12
:1013CC000520FFF75DFE2A20FFF742FE0020FFF705
:1013DC0057FE0020FFF754FE0020FFF751FE9F2020
:1013EC00FFF74EFE2B20FFF733FE0020FFF748FEE1
:1013FC000020FFF745FE0020FFF742FE4F20FFF7CD
:10140C003FFEE020FFF724FE0220FFF739FE1C20F0
:10141C00FFF736FE0720FFF733FE1220FFF730FEF2
:10142C003720FFF72DFE3220FFF72AFE2920FFF789
:10143C0027FE2D20FFF724FE2920FFF721FE252073
:10144C00FFF71EFE2B20FFF71BFE3920FFF718FEBF
:10145C000020FFF715FE0120FFF712FE0320FFF717
:10146C000FFE1020FFF70CFEE120FFF7F1FD03202B
:10147C00FFF706FE1D20FFF703FE0720FFF700FE17
:10148C000620FFF7FDFD2E20FFF7FAFD2C20FFF7BD
:10149C00F7FD2920FFF7F4FD2D20FFF7F1FD2E209D
:1014AC00FFF7EEFD2E20FFF7EBFD3720FFF7E8FDF1
:1014BC003F20FFF7E5FD0020FFF7E2FD0020FFF7DE
:1014CC00DFFD0220FFF7DCFD1020FFF7D9FD132014
:1014DC00FFF7BEFD0A2000F093FB2920FFF7B8FDB3
:1014EC00642000F08DFB0020FFF783FE0220FFF745
:1014FC00D5FE10BD10B586B00C22002103A800F05B
:10150C0043FB80210E4B89025A6990200A435A6191
:10151C005B6904240B400093009B012301A9C005C7
:10152C000293019400F0C8FE902000222100C00517
:10153C0000F050FF034801F001F906B010BDC046A1
:10154C00001002408800002070B5104801F04CF8E3
:10155C0064210E4801F088F80024A04203D10B4806
:10156C0001F0ACF80400094801F060F82000FFF726
:10157C0091FB0749FFF744FAE6218905FFF740FA8A
:10158C00011CFEF745FF034B186070BD880000205E
:10159C003333534004000020114B10B51C68114923
:1015AC00201CFEF72BFF0423002814D10E49201C0D
:1015BC00FEF724FF032300280DD10C49201CFEF755
:1015CC001DFF0223002806D10949201CFEF716FF37
:1015DC0003005A1E9341074A1800137010BDC046F1
:1015EC00040000209A997940CDCC6C4000006040FA
:1015FC00CDCC4C400000002070B500F011FBFA215E
:10160C001C4A050013688900C31A8B420FD3106063
:10161C00FFF79AFF061CFFF7BFFF00F01FFA1649F1
:10162C00301CFEF7CDFE041E02D000F09DFA70BDFA
:10163C00301C1249FEF7C4FE0600A04213D0FA215A
:10164C000F4A49001368EB1A8B42F0D30D4B15600F
:10165C00187842425041C0B2187000F05FFA200076
:10166C0000F05BFAE3E7012000F057FA300000F0DD
:10167C0055FADCE7200000203333334000004040B3
:10168C001C0000201A000020014B18787047C0463F
:10169C002400002010B500F067FA10BD002210B530
:1016AC00074B11201A70FFF7D3FC782000F0A8FA32
:1016BC002920FFF7CDFC0220FFF7F0FD10BDC0463E
:1016CC002400002030B58FB01C22002106A800F0A9
:1016DC005BFA14220021684600F056FA0224012518
:1016EC00102305A80993059408950B940D9400F00C
:1016FC001DFB0723009300232900684601940293E5
:10170C00039300F003FD0FB030BD000007B500F0EF
:10171C008DFA80218020104B4905DA6940000A437C
:10172C00DA61DB690B400193019B01F08DFA042314
:10173C0080200A4A400011680B43136001F06EFAD6
:10174C000121080001F096FAFFF7BCFF00F076FAD1
:10175C00FFF7A4FF07BDC046001002400070004018
:10176C000022044B10B51A7000F05AFA024B1860A4
:10177C0010BDC0462D0000202800002007B5002019
:10178C00044B28211870044B009350231A00FFF7C8
:10179C0047FD07BD2D000020A891000807B50222C7
:1017AC00054B28211A70054B0020009350231A007A
:1017BC00FFF736FD07BDC0462D000020A82D000800
:1017CC0010B50020FFF715FD0A24200064210F4AF4
:1017DC00FFF718FD2000073465210C4AE4B2FFF72F
:1017EC0011FD492CF1D10024200014216043494201
:1017FC00FEF7E8FC5F30C1B260001430034AC0B29F
:10180C000134FFF7FFFC142CEED110BD0842000090
:10181C0037B50025374B040018703C220C2391215E
:10182C000A200095FFF7DAFC012C2BD1324C0A234D
:10183C002822922114200094FFF7D0FC06232422A6
:10184C00942116200095FFF7C9FC0623032294214E
:10185C0018200094FFF7C2FC0623032294211D20BC
:10186C000094FFF7BBFC0623032294212220009452
:10187C00FFF7B4FC06230322942127200094FFF7E2
:10188C00ADFC37BD1D4C0A23322292210F2000944F
:10189C00FFF7A4FC06232E22942111200095FFF7BC
:1018AC009DFC06230322942113200094FFF796FC41
:1018BC0006230322942118200094FFF78FFC0623A3
:1018CC00032294211D200094FFF788FC0623032299
:1018DC00942122200094FFF781FC062303229421FB
:1018EC0027200094FFF77AFC0623032294212C2056
:1018FC000094C4E72C00002020FD0000FF0700002E
:10190C00F0B505000C0085B0061C1F2800D91F2659
:10191C00F6B2231C1F2C00D91F23DAB203923B4AC8
:10192C003B4F16703B4A13703B4B1A78012A06D07A
:10193C0001221A70FFF744FF3878FFF769FF3B78F4
:10194C00012B53D8182D53D8102D54D8082D54D8FA
:10195C00FC27FF000023082214210A2000932833BF
:10196C00FFF73CFC28233C2173435B11DBB2C91A03
:10197C0008220A20C9B20097FFF730FC00230F2D74
:10198C0001D9FC23DB0000930A22082382210520C5
:10199C00FFF724FC1E4B1B78002B27D1182C2ED8BC
:1019AC00102C2FD8082C2FD8FC26F6000025282325
:1019BC000822142141200095FFF710FC28233C211C
:1019CC00039A412053435B11DBB2C91A0822C9B2F6
:1019DC000096FFF703FC0F2C01D9FC25ED00082322
:1019EC000A22822141200095FFF7F8FB05B0F0BDDB
:1019FC00F8273F02AEE7094FACE7094FAAE7F826F4
:101A0C003602D3E7054ED1E7054ECFE7260000207E
:101A1C002C000020250000202D00002020FD0000BF
:101A2C00E0FF000010B500F0FBF8084A1368C31A79
:101A3C00312B0AD9064B10601B78012B05D1054BB5
:101A4C001978054B1878FFF75BFF10BD28000020B4
:101A5C002D0000202500002026000020002373B557
:101A6C00162200930500052132200C33FFF7B6FB3C
:101A7C00322420000521264AFFF7C4FB2000013444
:101A8C000E21234AE4B2FFF7BDFB462CF1D1413CB9
:101A9C001F4E210032003220FFF7B4FB210001342D
:101AAC0032004520E4B2FFF7ADFB0F2CF0D106233A
:101ABC000222072146200096FFF790FB6B1EDBB23B
:101ACC00032B11D80024134A5B009E5AA00034301B
:101ADC000134062303220721C0B20096E4B2FFF7BB
:101AEC007DFBA542F2D873BD002DFCD100F098F817
:101AFC00FA214900FEF7DCFAC007F4D5F8231B02E3
:101B0C0000931022062307213420FFF767FBEAE736
:101B1C00FFFF0000A02D00087047704770470000C1
:101B2C00034B188864300005000D18807047C046C0
:101B3C002E000020034B188896300005000D1880ED
:101B4C007047C04608000020704710B50A2000F00E
:101B5C0057F8FFF7B3FBFFF711FEFA20800000F0F7
:101B6C004FF8FFF7F1FC10BD10B50A2000F048F853
:101B7C00FFF714FEFA20800000F042F80A2000F073
:101B8C003FF8FFF7C3FD10BD03008218934200D14C
:101B9C00704719700133F9E7FEE770477047000092
:101BAC0070B50500FA200D4B80001968FEF780FA1D
:101BBC000B4C01002068FEF77BFA00F0A3F8040040
:101BCC000120002C09D1032D07D80238220029004E
:101BDC0000F05AF82000034B1D6070BD0C00002073
:101BEC00140000201000002010B5032000F02EF887
:101BFC000020FFF7D5FFFFF7D1FF002010BD00003C
:101C0C00054A1168431C02D0044B1B68C0181368AA
:101C1C005B1A8342FBD37047300000200C0000207D
:101C2C00014B18687047C046300000200221024A60
:101C3C0013688B431360704710E000E00223024AE4
:101C4C0011680B431360704710E000E0C31E10B521
:101C5C000400042B03D90C210748FFF79DFFE0215A
:101C6C00064AC9002402D3680C4005490B401C43AA
:101C7C00044B2343D36010BDA8F5000800ED00E031
:101C8C00FFF800000000FA0570B504000D00160006
:101C9C000F2A03D917211748FFF77EFF0F2D03D901
:101CAC0018211448FFF778FF0722134BDB681B0A37
:101CBC001340591FD31A022901D9022300210122F2
:101CCC005242100098408A4085438D4096433543DC
:101CDC00AD01EDB2002C05DBA408084BC034A40008
:101CEC00E55070BD0F231C40054BA400E418656043
:101CFC00F7E7C046A8F5000800ED00E000E100E0C1
:101D0C0008ED00E08022431E52040120934208D2C9
:101D1C00C021044A00205360034B99640723906050
:101D2C001360704710E000E000ED00E0F0B5040037
:101D3C0085B0002853D003680F2B03D98021B148FC
:101D4C00FFF72AFF2368DB0719D423689B0700D50C
:101D5C006FE023681B0700D5B8E023685B0700D54C
:101D6C00E2E0A369022B04D9B521A6484900FFF78C
:101D7C0013FFA369002B00D052E1002027E0636819
:101D8C00022B03D986219F48FFF706FF0C229E4D9C
:101D9C006B681340042B1CD06B681340082B00D1CC
:101DAC006B686368012B1CD180232A685B02134388
:101DBC002B60FFF735FF80260700B6022B683342F5
:101DCC00C3D1FFF72DFFC01B6428F7D9032005B042
:101DDC00F0BD2B689B03B8D56368002BB5D10120EF
:101DEC00F5E7002B15D12B68884A802613402B6011
:101DFC002B68874AB60213402B60FFF711FF0700D0
:101E0C002B683342A1D0FFF70BFFC01B6428F7D916
:101E1C00DCE7022B05D180232A68DB0213432B60FD
:101E2C00C2E72B68794A13402B602B68784A134021
:101E3C00BEE7E368012B03D9B9217248FFF7ACFE6A
:101E4C0023691F2B03D9BA216E48FFF7A5FE0C227C
:101E5C006D4D6B68134206D06B681340082B10D184
:101E6C006B68DB030DD42B689B0702D5E368012B51
:101E7C00B5D1F8212A6823698A43DB0013432B6010
:101E8C0067E7E2680123002A0FD02A680226134371
:101E9C002B60FFF7C5FE07002B683342E9D1FFF733
:101EAC00BFFEC01B6428F7D990E72A6802269A4324
:101EBC002A60FFF7B5FE07002B68334200D148E7D4
:101ECC00FFF7AEFEC01B6428F6D97FE76369012BD0
:101EDC0003D9FA214B48FFF75FFE626901234A4D93
:101EEC00002A10D06A6A022613436B62FFF798FE31
:101EFC0007006B6A334200D02FE7FFF791FEC01B3F
:101F0C006428F6D962E76A6A02269A436A62FFF786
:101F1C0087FE07006B6A334200D11EE7FFF780FE95
:101F2C00C01B6428F6D951E7A368022B04D993216E
:101F3C0034484900FFF730FE80220021324D520513
:101F4C00EB690091134208D1EB691343EB61EB6928
:101F5C0013400393039B0123009380272D4E7F0096
:101F6C0033683B4215D0A368012B22D12A6A134354
:101F7C002B62FFF755FE022706002B6A3B4239D035
:101F8C00009B012B00D0ECE6EB69234A1340EB617C
:101F9C00E7E633683B433360FFF742FE019033685A
:101FAC003B42E0D1FFF73CFE019BC01A6428F6D9F6
:101FBC000CE7002B15D101222B6A022793432B62CD
:101FCC002B6A033293432B62FFF72AFE06002B6A1F
:101FDC003B42D5D0FFF724FE104B801B9842F6D91C
:101FEC00F4E6022BC5D12A6A013B13432B622A6A01
:101FFC000423BCE7FFF714FE084B801B9842BCD9A6
:10200C00E4E6C046DEF5000800100240FFFFFEFFCC
:10201C00FFFFFBFF00700040FFFFFFEF8813000085
:10202C000C21364D6A680A40082A52D0344E022BD5
:10203C003DD1E369012B04D974213248FF31FFF7FC
:10204C00ABFD236A0E2B04D9BA212E484900FFF7A9
:10205C00A3FD2B6833402B60FFF7E2FD80260700C1
:10206C00B6042B6833421CD16B68274A1340E269D3
:10207C001343226A8024920413436B6080232A68E2
:10208C005B0413432B60FFF7CBFD0600A4042B6805
:10209C00234200D071E6FFF7C3FD801B6428F6D9FC
:1020AC0094E6FFF7BDFDC01B6428DAD98EE62B68D9
:1020BC00802433402B60FFF7B3FD0600A4042B688B
:1020CC00234200D159E6FFF7ABFD801B6428F6D9FB
:1020DC007CE6012B00D182E680236868E2695B0212
:1020EC000340934200D07AE6F0239B031840236A06
:1020FC00C01A431E9841C0B269E6C04600100240A7
:10210C00FFFFFFFEDEF50008FFFFC2FFF7B504007E
:10211C000E00002801D10120FEBD0368072B04D955
:10212C00CC215A48FF31FFF737FD012E04D9E621A7
:10213C0056484900FFF730FD0722554D2B681340D8
:10214C00B3421DD323689A0723D42368DB074AD4F0
:10215C0007222B681340B34275D823684D4D5B079B
:10216C007BD46B684C494D4A1B061B0FD25C0B6829
:10217C00D3400B604A4B1868FFF712FD0020CBE7E9
:10218C002B68934333432B602B681340B342C2D16B
:10219C00D8E7404F5B0704D5E0237A68DB00134394
:1021AC007B60A36880221900914315D0202219006E
:1021BC009143902910D0402219009143A0290BD0B3
:1021CC00102219009143C02906D0F02B04D0EC2129
:1021DC002E48FF31FFF7E0FCF0227B689343A268A6
:1021EC0013437B60B1E76368022B04D9F9212748BC
:1021FC004900FFF7D1FC274F62683B68012A1AD1CE
:10220C009B0300D487E703217B688B4313437B60DC
:10221C00FFF706FD01900C237A681A4063689B0057
:10222C009A4295D0FFF7FCFC019BC01A1D4B9842BB
:10223C00F1D9032070E7022A02D19B01E3D46AE7AB
:10224C009B07E0D467E72B68934333432B602B68E1
:10225C001340B34200D05EE77FE7E368124A1342B3
:10226C000DD0A021114AC9001A408A4207D0C022C1
:10227C00D200934203D005480D49FFF78DFC6B68E3
:10228C000C4A1340E26813436B606AE7DEF5000802
:10229C0000200240001002401400002011F700083A
:1022AC001000002088130000FFFBFFFFFFFDFFFF65
:1022BC002E020000FFF8FFFF9023F7B5DB050400AA
:1022CC000D00984209D0384B984206D0374B9842B3
:1022DC0003D00A213648FFF75FFC2B689AB2002A1C
:1022EC0003D080225202934203D30B213048FFF7D4
:1022FC0053FC6B68032B06D9113B012B03D90C2122
:10230C002B48FFF749FCAB68022B03D90D21284859
:10231C00FFF742FC0322002394462A681100D9409F
:10232C0000D1F7BD0121994001910A4230D0674696
:10233C005E00B74060462268BA4311006A681040DC
:10234C00B04008432060501E012823D860680199D2
:10235C0088436060E968A068B140B8430143A1605C
:10236C00A968E068B140B8430143E16010218A4399
:10237C00022A0DD107201840800001398140DA086B
:10238C009200A218166A8E4329698140314311626A
:10239C000133C2E7100011380128DBD860680199BD
:1023AC0001436160D6E7C0460004004800080048BD
:1023BC0011F6000870B504000D1E03D178210448F5
:1023CC00FFF7EAFB20692840431E9841C0B270BD5C
:1023DC0011F6000870B505000C001600002903D199
:1023EC0088210748FFF7D8FB012E05D9892104481D
:1023FC00FFF7D2FBAC6170BD002EFBD1AC62FAE7EB
:10240C0011F60008F0B587B01E000400150007682F
:10241C000291FFF705FC029B03900120002B3FD09B
:10242C00002D3DD02300503301931B780018012B55
:10243C0036D00123019A13700233A3640023A586BE
:10244C00E364E5860500029B2363E38E002B0DD12C
:10245C008025BB68180028402B4223D123680590A7
:10246C00DA6805929B680593059B14E0BB682B42C8
:10247C0008D0236B5A1C22631B783B73E38E013B01
:10248C00E386E2E7731CE0D0FFF7CAFB039BC01A9C
:10249C00B042DAD303200123A3640023019A137002
:1024AC0007B0F0BD731CD4D0FFF7BAFB039BC01A66
:1024BC00B042CED3EEE7704770B5444B05680400CC
:1024CC009D4203D03F214248FFF766FB042263681C
:1024DC00934303D040213E48FFF75EFBA3683D4A7F
:1024EC00134207D080221202934203D04121384874
:1024FC00FFF752FBE268384B1A4203D042213448B2
:10250C00FFF74AFB02222369934303D0432130484F
:10251C00FFF742FB6369012B03D944212C48FFF7D9
:10252C003BFBA3692D4A134207D08022D20293426F
:10253C0003D045212648FFF72FFBE369002B11D070
:10254C00182B08D8072B04D846212148FFF724FB69
:10255C0008E0234A03E0203B182BF5D8214ADA4047
:10256C00D207F1D58022236A934303D04721184820
:10257C00FFF712FB2000FFF79EFF40222B68A1689B
:10258C0093432B606368A2690B43E1680B43216999
:10259C000B4361690B43E16913430B43216A0B4302
:1025AC00A16A0B432B6080239B009A4204D12A68BA
:1025BC000133FF3313432B6040232A68002013435D
:1025CC002B600123A364E06470BDC0460030014061
:1025DC0045F60008FFFBFFFFFFF7FFFFFFFDFFFFC6
:1025EC00000101010101010170B50E4B04680500E9
:1025FC009C4203D05F210C48FFF7CEFA40352B7874
:10260C000220012B0CD00123A2681A4202D1A2682D
:10261C001343A36004230020A2681343A360287013
:10262C0070BDC0460024014078F6000870B50C4B14
:10263C00056804009D4203D079210A48FFF7ACFAE3
:10264C00403423780220012B09D01023AA681A43A6
:10265C00AA60AA68100018401A42FAD1207070BD06
:10266C000024014078F60008F7B504000D00066858
:10267C00FFF7D6FA0F4B226801909A4203D09321B0
:10268C000D48FFF789FA042733683B4202D000203B
:10269C00376006E06B1CF7D0002D03D10723032015
:1026AC00A363FEBDFFF7BCFA019BC01AA842EBD98D
:1026BC00F4E7C0460024014078F6000810B5054B3D
:1026CC0004689C4203D0AF210348FFF765FA206CE5
:1026DC0010BDC0460024014078F6000870B5154BBB
:1026EC00046806000D009C4203D0BA211248FFF783
:1026FC0053FA2B68112B03D9BB210F48FFF74CFA67
:10270C00AB68072B03D9BC210B48FFF745FA4036C1
:10271C0033780220012B0CD001232868A16A834056
:10272C0000209943A162A16A0B43A362AB68636169
:10273C00307070BD0024014078F6000870B50400BC
:10274C000568FFF76DFA134B226806009A4203D016
:10275C00D7211148FFF720FA403423780220012BAF
:10276C0017D001222270AB689343AB608023AA6818
:10277C001B061343AB60AB68002B02DB0020207000
:10278C0007E0FFF74DFA801B0A28F4D90023032039
:10279C00237070BD0024014078F6000870470000DB
:1027AC0070B504000120002C2FD0184B22689A42DF
:1027BC0003D037211648FFF7EFF920002568FFF703
:1027CC00EDFF0223A36300230122E363AB68E168FE
:1027DC009343AB60A3680B4321690B43216A0B4302
:1027EC00616A0B43E16A0B43A16A0B43216B0B43F8
:1027FC0061690B43616B0B43EB60AB681343AB60DC
:10280C002B681342FCD00020A26370BD0024014051
:10281C0078F600081B4A10B50368904206D0802455
:10282C00E405A04202D0184CA0420ED17024A34360
:10283C004C682343904211D08024E405A0420DD073
:10284C00114CA0420AD0114C06E0104CA04205D00D
:10285C000F4CA04202D00F4CA04203D10E4C1C4096
:10286C00CB6823438024A3434C69234303608B68C8
:10287C00C3620B688362904201D10B69036301232D
:10288C00436110BD002C01400004004000200040BA
:10289C000044014000480140FFFCFFFFF0B5070079
:1028AC000C001600056885B0182A03D8734BD3406A
:1028BC00DB0703D47F217248FFF76EF910222368DF
:1028CC009343602B03D080216D48FFF765F90222FA
:1028DC00A368934303D081216948FFF75DF9042273
:1028EC002369934303D082216548FFF755F93B00D8
:1028FC0002223C331978100001290DD001215A70A5
:10290C001970002E0AD0042E5DD03B00012200204D
:10291C003D333C371A70387005B0F0BD73203E68FB
:10292C00336A8B433362336A716893430291A268B2
:10293C00B1691343814320680193524B01430391C6
:10294C009E422BD10822E368934304D086214C4845
:10295C004900FFF721F90823019A9A431300E26812
:10296C001343042293430193A269474B1A4204D0A8
:10297C001A214348FF31FFF70FF96269434B1A42A2
:10298C0004D08D213E484900FFF706F90323029A33
:10299C00A1699A4363690B4313430293029B7360CF
:1029AC00039BB36163687363019B33620823AA6959
:1029BC0013430422AB61AB699343AB61AB692269EE
:1029CC001343AB61A1E710223E683149336A93434C
:1029DC003362336A72680192B2690A402168090253
:1029EC00114320229343A268039112011A43254BF1
:1029FC0002929E422CD10822E368934304D05221C8
:102A0C001F48FF31FFF7C8F88023029A9A43E36806
:102A1C001B011343402293430293A2691A4B1A429F
:102A2C0004D060211648FF31FFF7B6F86269174BE6
:102A3C001A4204D0B02112484900FFF7ADF80C231C
:102A4C00019AA1699A4363690B439B001343019359
:102A5C00019B7360039BB3616368B363029B336236
:102A6C008023AA691B011343AB61AB69094A13406C
:102A7C00AB612369AA691B02A2E7C04611110001D0
:102A8C00ABF60008002C0140FFFDFFFFFFFEFFFF2F
:102A9C00FF8CFFFFFFFBFFFF0368254A70B50600A4
:102AAC000C00934206D08022D205934202D0214AD8
:102ABC00934206D10C2C36D81F4BE340DB0705D4D0
:102ACC0031E01E4A934228D1002C2CD1802335684A
:102ADC00DB059D4204D07E211948FF31FFF75CF8DD
:102AEC00182C03D8174BE340DB0704D4BF21144840
:102AFC004900FFF751F801231F2219002240914091
:102B0C000A00296A002091432962296A0A432A6231
:102B1C00326811680B43136070BD0B4A9342D3D0DB
:102B2C000A4A9342D0D0B7210548FFF735F8CDE7D4
:102B3C00002C014000040040111100000020004056
:102B4C00ABF600081111000100440140004801409F
:102B5C007047000070B504000120002C4FD0236892
:102B6C00274A934213D08022D20593420FD0254A94
:102B7C0093420CD0244A934209D0244A934206D063
:102B8C00234A934203D060212248FFF705F8A3683B
:102B9C001022190091430AD0402219009143202998
:102BAC0005D0402B03D061211A48FEF7F5FF2369AD
:102BBC00194A134207D080229200934203D062211B
:102BCC001448FEF7E9FF8022A369934303D06321E5
:102BDC001048FEF7E1FF25003D352B78002B05D181
:102BEC0022003C3220001370FFF7B2FF02232B703F
:102BFC002068211DFFF70EFE012300202B7070BDF5
:102C0C00002C014000040040002000400044014022
:102C1C0000480140ABF60008FFFEFFFF421E074BC9
:102C2C00FF3A10B504001A4203D01A210448FEF7EB
:102C3C00B3FF044B58682043586010BDFFFEFFFFE4
:102C4C00DEF6000800700040421E074BFF3A10B53C
:102C5C0004001A4203D023210448FEF79DFF044AC6
:102C6C005368A343536010BDFFFEFFFFDEF6000860
:102C7C000070004070B505000C00012803D94421F8
:102C8C001248FEF789FF631E012B03D945210F481B
:102C9C00FEF782FF02210E4B1A688A431A6001224A
:102CAC0018689043284318600A4B033219690A4389
:102CBC001A61012C05D130BF04211A698A431A61AB
:102CCC0070BD40BF20BF20BFF6E7C046DEF600084F
:102CDC000070004000ED00E00121114B11481A6812
:102CEC000A431A605A6802405A601A680E48024039
:102CFC001A601A680D4802401A605A680C48024063
:102D0C000F205A60DA6A8243DA621A6B0948024071
:102D1C001A635A6B8A435A6300229A607047C04602
:102D2C00001002400CB8FFF8FFFFF6FEFFFFFBFFA0
:102D3C00FFFFC0FFACFEFFFF0D4885460D480E4956
:102D4C000E4A002302E0D458C4500433C4188C42F9
:102D5C00F9D30B4A0B4C002301E013600432A2425E
:102D6C00FBD3FFF7B9FFFEF718FFFDF7F3FFFEE704
:102D7C0000200020000000201800002024F700088C
:0C2D8C00180000200C010020FEE70000F1
:102D98000000FA005802E70320FDE0FFE007E00723
:102DA800000000000000000000000000000000001B
:102DB800000000000000000000000000000000000B
:102DC80000000000000000000000000000000000FB
:102DD80000000000000000000000000000000000EB
:10F5A800447269766572732F574233324C30303368
:10F5B8005F48414C5F4472697665722F5372632FBE
:10F5C800776233326C3030335F68616C5F636F72BF
:10F5D8007465782E6300447269766572732F57429A
:10F5E80033324C3030335F48414C5F447269766542
:10F5F800722F5372632F776233326C3030335F6807
:10F60800616C5F7263632E6300447269766572731E
:10F618002F574233324C3030335F48414C5F44728D
:10F62800697665722F5372632F776233326C30308C
:10F63800335F68616C5F6770696F2E63004472693D
:10F64800766572732F574233324C3030335F4841FE
:10F658004C5F4472697665722F5372632F776233F9
:10F66800326C3030335F68616C5F7370692E630091
:10F67800447269766572732F574233324C30303397
:10F688005F48414C5F4472697665722F5372632FED
:10F69800776233326C3030335F68616C5F6164630A
:10F6A8002E6300447269766572732F574233324C69
:10F6B8003030335F48414C5F4472697665722F532E
:10F6C80072632F776233326C3030335F68616C5FFE
:10F6D80074696D2E6300447269766572732F5742A0
:10F6E80033324C3030335F48414C5F447269766541
:10F6F800722F5372632F776233326C3030335F6806
:10F70800616C5F7077722E630000000000000000DB
:0CF71800000102030406070809000000BD
:10F7240003000000CDCC6C40000800000100000084
:08F73400040000000048E80198
:0400000508002D457D
:00000001FF
